:100000000C9430000C9445000C9445000C94450071
:100010000C9445000C9445000C9445000C9445004C
:100020000C9445000C9445000C9445000C9445003C
:100030000C9445000C9445000C9445000C9445002C
:100040000C9445000C9445000C9445000C9445001C
:100050000C9445006364696E6F70737578585B002B
:1000600011241FBECFE5D8E0DEBFCDBF10E0A0E673
:10007000B0E0EAE1F9E202C005900D92A23AB107C0
:10008000D9F70E94740C0C948B140C940000EF921E
:10009000FF920F931F937B018C0120E030E040E042
:1000A0005FE40E94470388238CF0C801B70120E079
:1000B00030E040E05FE40E94BF010E94A7039B0183
:1000C000AC01205030404040504806C0C801B70144
:1000D0000E94A7039B01AC01B901CA011F910F91B6
:1000E000FF90EF900895A0E0B0E0E9E7F0E00C9415
:1000F000610EDC012B01FA019C91923008F439C1A8
:10010000EB018881823008F433C1943069F4843083
:1001100009F02FC111969C9111978981981709F4C4
:1001200028C1A9E8B0E025C1843009F421C182309A
:10013000A9F4923009F01DC19A01AD0188E0EA01ED
:100140000990AE01E90109929E018150C1F7E201D7
:10015000898111969C918923818308C1923009F489
:1001600007C112962D903C901397EB018A819B81D9
:100170001496AD90BD90CD90DC901797EC80FD80EB
:100180000E811F819101281B390BB90137FF04C073
:1001900066277727621B730B603271050CF061C014
:1001A000121613066CF537014801062E04C096940A
:1001B0008794779467940A94D2F721E030E040E086
:1001C00050E004C0220F331F441F551F6A95D2F719
:1001D00021503040404050402E213F2140235123A8
:1001E000211531054105510521F021E030E040E0C5
:1001F00050E079018A01E628F728082919293CC02E
:10020000232BD1F1260E371E35014601062E04C0E0
:1002100096948794779467940A94D2F721E030E01B
:1002200040E050E004C0220F331F441F551F6A9561
:10023000D2F721503040404050402A213B214C21F0
:100240005D21211531054105510521F021E030E006
:1002500040E050E059016A01A628B728C828D928EB
:100260000BC0821593052CF01C01AA24BB24650148
:1002700003C0EE24FF24870111969C91D2011196B0
:100280008C91981709F445C0992339F0A80197017A
:100290002A193B094C095D0906C0A60195012E19D2
:1002A0003F09400B510B57FD08C011823382228257
:1002B00024833583468357831DC081E08183338245
:1002C000228288279927DC01821B930BA40BB50B94
:1002D00084839583A683B7830DC0220F331F441FE9
:1002E000551F2483358346835783828193810197E9
:1002F000938382832481358146815781DA01C90144
:100300000197A109B1098F5F9F4FAF4FBF4328F3FA
:100310000BC0918333822282EA0CFB1C0C1D1D1D35
:10032000E482F5820683178383E08083248135810C
:100330004681578157FF1AC0C901AA2797FDA0958A
:10034000BA2F81709070A070B07056954795379510
:100350002795822B932BA42BB52B84839583A6837F
:10036000B78382819381019693838283DF0101C0E9
:10037000D201CD01CDB7DEB7E2E10C947D0EA0E253
:10038000B0E0E5ECF1E00C946D0E69837A838B8329
:100390009C832D833E834F835887E9E0EE2EF12C1A
:1003A000EC0EFD1ECE010196B7010E94D0048E0115
:1003B0000F5E1F4FCE010596B8010E94D0048A89B6
:1003C00091E089278A8BC701B801AE01475E5F4F74
:1003D0000E9473000E94FB03A096E6E00C94890E35
:1003E000A0E2B0E0E6EFF1E00C946D0E69837A8351
:1003F0008B839C832D833E834F835887F9E0EF2EB8
:10040000F12CEC0EFD1ECE010196B7010E94D00426
:100410008E010F5E1F4FCE010596B8010E94D004D9
:10042000C701B801AE01475E5F4F0E9473000E9492
:10043000FB03A096E6E00C94890EA0E2B0E0E3E2B4
:10044000F2E00C94610E69837A838B839C832D8305
:100450003E834F835887CE010196BE01675F7F4F71
:100460000E94D004CE010596BE016F5E7F4F0E94B0
:10047000D0049985923088F089898230C8F0943010
:1004800019F4823051F404C0843029F4923081F49C
:1004900089E890E0C6C0923049F420E09A858A89C4
:1004A000981321E02A87CE010996BBC0823049F417
:1004B00020E09A858A89981321E02A8BCE01419603
:1004C000B0C02D843E844F8458886D887E888F8884
:1004D000988CEE24FF248701AA24BB24650140E008
:1004E00050E060E070E0E0E0F0E0C1018170907009
:1004F000892BE9F0E60CF71C081D191D9A01AB01C8
:100500002A0D3B1D4C1D5D1D80E090E0A0E0B0E099
:10051000E614F7040805190520F481E090E0A0E056
:10052000B0E0BA01A901480F591F6A1F7B1FAA0C2E
:10053000BB1CCC1CDD1C97FE08C081E090E0A0E055
:10054000B0E0A82AB92ACA2ADB2A3196E032F1059E
:1005500049F0660C771C881C991C56944794379474
:100560002794C3CFFA85EA892B893C898B859C85A2
:10057000280F391F2E5F3F4F17C0CA01817090703E
:10058000892B61F016950795F794E79480E090E049
:10059000A0E0B0E8E82AF92A0A2B1B2B769567958C
:1005A000579547952F5F3F4F77FDE7CF0CC0440F1E
:1005B000551F661F771F17FD4160EE0CFF1C001FC3
:1005C000111F21503040403090E0590790E06907FA
:1005D00090E4790760F32B8F3C8FDB01CA018F77A2
:1005E0009070A070B07080349105A105B10561F4E0
:1005F00047FD0AC0E114F1040105110529F0405C32
:100600005F4F6F4F7F4F40781A8EFE1711F081E0D9
:100610008A8F4D8F5E8F6F8F78A383E0898FCE0195
:1006200049960E94FB03A096E2E10C947D0EA8E19E
:10063000B0E0EDE1F3E00C946D0E69837A838B8377
:100640009C832D833E834F83588789E0E82EF12CCD
:10065000EC0EFD1ECE010196B7010E94D0048E0162
:100660000F5E1F4FCE010596B8010E94D004898508
:10067000823040F08989823028F0C701B8010E9499
:10068000480501C08FEF6896E6E00C94890EA8E15A
:10069000B0E0EDE4F3E00C946D0E69837A838B8314
:1006A0009C832D833E834F83588789E0E82EF12C6D
:1006B000EC0EFD1ECE010196B7010E94D0048E0102
:1006C0000F5E1F4FCE010596B8010E94D0048985A8
:1006D000823040F08989823028F0C701B8010E9439
:1006E000480501C08FEF6896E6E00C94890EA8E1FA
:1006F000B0E0EDE7F3E00C946D0E69837A838B83B1
:100700009C832D833E834F83588789E0E82EF12C0C
:10071000EC0EFD1ECE010196B7010E94D0048E01A1
:100720000F5E1F4FCE010596B8010E94D004898547
:10073000823040F08989823028F0C701B8010E94D8
:10074000480501C081E06896E6E00C94890EACE0B3
:10075000B0E0EDEAF3E00C94710E69837A838B8349
:100760009C83CE010196BE016B5F7F4F0E94D00437
:100770008D81823061F1823050F1843021F48E819C
:10078000882351F12EC02F81388537FD20C06E811E
:100790002F3131051CF06623F9F023C08EE190E083
:1007A000821B930B29853A854B855C8504C0569541
:1007B0004795379527958A95D2F76623B1F05095DE
:1007C0004095309521953F4F4F4F5F4F0EC020E031
:1007D00030E040E050E009C02FEF3FEF4FEF5FE720
:1007E00004C020E030E040E050E8B901CA012C9696
:1007F000E2E00C948D0EDF92EF92FF920F931F9325
:10080000FC01E480F58006811781D18080818230EF
:1008100048F480E090E0A0E1B0E0E82AF92A0A2B51
:100820001B2BA5C0843009F49FC0823021F4EE2434
:10083000FF24870105C0E114F1040105110519F435
:10084000E0E0F0E096C0628173819FEF6238790743
:100850000CF05BC022E83FEF261B370B2A31310535
:100860002CF020E030E040E050E02AC0B801A701C1
:10087000022E04C076956795579547950A94D2F74E
:1008800081E090E0A0E0B0E004C0880F991FAA1FAB
:10089000BB1F2A95D2F70197A109B1098E219F218B
:1008A000A023B1230097A105B10521F081E090E0DC
:1008B000A0E0B0E09A01AB01282B392B4A2B5B2B2F
:1008C000DA01C9018F779070A070B0708034910503
:1008D000A105B10539F427FF09C0205C3F4F4F4FF8
:1008E0005F4F04C0215C3F4F4F4F5F4FE0E0F0E0AF
:1008F0002030A0E03A07A0E04A07A0E45A0710F031
:10090000E1E0F0E079018A0127C06038710564F503
:10091000FB01E158FF4FD801C7018F779070A0709D
:10092000B07080349105A105B10539F4E7FE0DC022
:1009300080E490E0A0E0B0E004C08FE390E0A0E0AD
:10094000B0E0E80EF91E0A1F1B1F17FF05C0169521
:100950000795F794E794319687E016950795F794F5
:10096000E7948A95D1F705C0EE24FF248701EFEFC5
:10097000F0E06E2F679566276795902F9F77D79445
:10098000DD24D7948E2F8695492F462B582F5D292D
:10099000B701CA011F910F91FF90EF90DF9008956A
:1009A000FC01DB01408151812281622F6F7770E071
:1009B000221F2227221F9381892F880F822B282F05
:1009C00030E0991F9927991F11969C931197211533
:1009D0003105A9F5411551056105710511F482E054
:1009E00037C082E89FEF13969C938E9312979A01DB
:1009F000AB0167E0220F331F441F551F6A95D1F7E3
:100A000083E08C930DC0220F331F441F551F129695
:100A10008D919C911397019713969C938E931297A7
:100A2000203080E0380780E0480780E4580758F31A
:100A300014962D933D934D935C93179708952F3FF4
:100A4000310579F4411551056105710519F484E00A
:100A50008C93089564FF03C081E08C9312C01C92B4
:100A600010C02F57304013963C932E93129783E07B
:100A70008C9387E0440F551F661F771F8A95D1F727
:100A8000706414964D935D936D937C9317970895BE
:100A90001F93DC01FB019C91923008F447C08081D8
:100AA000823008F443C0943051F411961C91843084
:100AB00099F58181682F70E0611B71093FC0843016
:100AC00021F0923031F48230B9F18181882389F1AB
:100AD0002DC011961C9111978230F1F08181181769
:100AE000D9F412962D913C911397828193818217AC
:100AF000930794F028173907BCF014968D919D91B7
:100B00000D90BC91A02D24813581468157812817F5
:100B100039074A075B0718F4112341F00AC082170E
:100B20009307A407B50740F4112319F061E070E0C2
:100B300005C06FEF7FEF02C060E070E0CB011F9156
:100B40000895DF93CF93CDB7DEB7AFE5B0E0EFE523
:100B5000F0E0808180688C93CF91DF910895DF93DE
:100B6000CF93CDB7DEB7AFE5B0E0EFE5F0E0808141
:100B70008F778C93CF91DF910895DF93CF93CDB78B
:100B8000DEB72D970FB6F894DEBF0FBECDBF8983B9
:100B90006A834B838981282F30E03D872C878C85A1
:100BA0009D858130910509F44FC02C853D8522300B
:100BB00031052CF48C859D85009771F0EBC02C8558
:100BC0003D852230310509F477C08C859D858330C1
:100BD000910509F4A9C0DEC08B81282F30E03B8746
:100BE0002A878A859B850097D1F02A853B8521300D
:100BF000310509F0CFC0AAE3B0E0EAE3F0E080817C
:100C0000482F8A81282F30E081E090E0022E02C038
:100C1000880F991F0A94E2F7842B8C93BBC0AAE338
:100C2000B0E0EAE3F0E08081482F8A81282F30E0AD
:100C300081E090E0022E02C0880F991F0A94E2F72B
:100C4000809584238C93A6C08B81282F30E0398730
:100C50002887888599850097D1F0288539852130A6
:100C6000310509F097C0A7E3B0E0E7E3F0E0808149
:100C7000482F8A81282F30E081E090E0022E02C0C8
:100C8000880F991F0A94E2F7842B8C9383C0A7E303
:100C9000B0E0E7E3F0E08081482F8A81282F30E040
:100CA00081E090E0022E02C0880F991F0A94E2F7BB
:100CB000809584238C936EC08B81282F30E03F83F6
:100CC0002E838E819F810097D1F02E813F8121302C
:100CD000310509F05FC0A4E3B0E0E4E3F0E0808117
:100CE000482F8A81282F30E081E090E0022E02C058
:100CF000880F991F0A94E2F7842B8C934BC0A4E3CE
:100D0000B0E0E4E3F0E08081482F8A81282F30E0D2
:100D100081E090E0022E02C0880F991F0A94E2F74A
:100D2000809584238C9336C08B81282F30E03D83BF
:100D30002C838C819D810097C9F02C813D812130CD
:100D4000310541F5A1E3B0E0E1E3F0E08081482F17
:100D50008A81282F30E081E090E0022E02C0880FC7
:100D6000991F0A94E2F7842B8C9314C0A1E3B0E09E
:100D7000E1E3F0E08081482F8A81282F30E081E094
:100D800090E0022E02C0880F991F0A94E2F7809526
:100D900084238C932D960FB6F894DEBF0FBECDBF83
:100DA000CF91DF910895DF93CF93CDB7DEB72D9725
:100DB0000FB6F894DEBF0FBECDBF89836A834B8325
:100DC0008981282F30E03D872C878C859D85813057
:100DD000910509F44FC02C853D85223031052CF456
:100DE0008C859D85009771F0EBC02C853D85223068
:100DF000310509F477C08C859D858330910509F410
:100E0000A9C0DEC08B81282F30E03B872A878A85E6
:100E10009B850097D1F02A853B852130310509F06B
:100E2000CFC0ABE3B0E0EBE3F0E08081482F8A81F4
:100E3000282F30E081E090E0022E02C0880F991F39
:100E40000A94E2F7842B8C93BBC0ABE3B0E0EBE3F6
:100E5000F0E08081482F8A81282F30E081E090E007
:100E6000022E02C0880F991F0A94E2F7809584230E
:100E70008C93A6C08B81282F30E0398728878885FE
:100E800099850097D1F0288539852130310509F001
:100E900097C0A8E3B0E0E8E3F0E08081482F8A81C2
:100EA000282F30E081E090E0022E02C0880F991FC9
:100EB0000A94E2F7842B8C9383C0A8E3B0E0E8E3C4
:100EC000F0E08081482F8A81282F30E081E090E097
:100ED000022E02C0880F991F0A94E2F7809584239E
:100EE0008C936EC08B81282F30E03F832E838E81C0
:100EF0009F810097D1F02E813F812130310509F08B
:100F00005FC0A5E3B0E0E5E3F0E08081482F8A818F
:100F1000282F30E081E090E0022E02C0880F991F58
:100F20000A94E2F7842B8C934BC0A5E3B0E0E5E391
:100F3000F0E08081482F8A81282F30E081E090E026
:100F4000022E02C0880F991F0A94E2F7809584232D
:100F50008C9336C08B81282F30E03D832C838C818D
:100F60009D810097C9F02C813D812130310541F5EB
:100F7000A2E3B0E0E2E3F0E08081482F8A81282FED
:100F800030E081E090E0022E02C0880F991F0A94A1
:100F9000E2F7842B8C9314C0A2E3B0E0E2E3F0E02C
:100FA0008081482F8A81282F30E081E090E0022E56
:100FB00002C0880F991F0A94E2F7809584238C93CE
:100FC0002D960FB6F894DEBF0FBECDBFCF91DF9147
:100FD0000895DF93CF9300D000D00F92CDB7DEB746
:100FE0008A836B838A81282F30E03D832C834C8158
:100FF0005D814130510541F18C819D8182309105A7
:1010000034F42C813D812115310561F052C04C81B1
:101010005D814230510551F18C819D818330910574
:10102000B9F147C0E9E3F0E08081282F30E08B81FF
:10103000882F90E0A90102C0559547958A95E2F75F
:10104000CA018170898335C0E6E3F0E08081282FF2
:1010500030E08B81882F90E0A90102C0559547951B
:101060008A95E2F7CA018170898323C0E3E3F0E047
:101070008081282F30E08B81882F90E0A90102C069
:10108000559547958A95E2F7CA018170898311C009
:10109000E0E3F0E08081282F30E08B81882F90E022
:1010A000A90102C0559547958A95E2F7CA0181705A
:1010B000898389810F900F900F900F900F90CF919F
:1010C000DF910895DF93CF9300D000D0CDB7DEB786
:1010D00089836A838981282F30E03C832B838B812D
:1010E0009C8181309105D1F02B813C8122303105EA
:1010F0002CF48B819C81009761F01EC02B813C8178
:101100002230310581F08B819C818330910581F003
:1011100013C0EAE3F0E08A8180830EC0E7E3F0E0E9
:101120008A81808309C0E4E3F0E08A81808304C07F
:10113000E1E3F0E08A8180830F900F900F900F9091
:10114000CF91DF910895DF93CF9300D000D0CDB73A
:10115000DEB789836A838981282F30E03C832B8323
:101160008B819C8181309105D1F02B813C81223093
:1011700031052CF48B819C81009761F01EC02B817E
:101180003C812230310581F08B819C818330910537
:1011900081F013C0EBE3F0E08A8180830EC0E8E3C6
:1011A000F0E08A81808309C0E5E3F0E08A818083F2
:1011B00004C0E2E3F0E08A8180830F900F900F90EB
:1011C0000F90CF91DF910895DF93CF93CDB7DEB726
:1011D00060970FB6F894DEBF0FBECDBF888B83E05B
:1011E00060E041E00E94D30683E061E040E00E94BD
:1011F000D3061F8617C08889282F30E08F85882F57
:1012000090E0A90102C0559547958A95E2F7CA0179
:10121000982F917082E06F85492F0E94D3068F85A9
:101220008F5F8F878F85883030F383E062E041E005
:101230000E94D30680E090E0A0E0B0E48B879C871A
:10124000AD87BE876B857C858D859E8520E030E0EF
:101250004AEF54E40E941D02DC01CB018F83988782
:10126000A987BA876F81788589859A8520E030E0E3
:1012700040E85FE30E94770388232CF481E090E04C
:101280009E838D833FC06F81788589859A8520E014
:101290003FEF4FE757E40E94170318164CF56B8594
:1012A0007C858D859E8520E030E040E251E40E94FF
:1012B0001D02DC01CB01BC01CD010E944700DC0115
:1012C000CB019E838D830FC088EC90E09C838B8341
:1012D0008B819C810197F1F79C838B838D819E810B
:1012E00001979E838D838D819E81009769F714C03D
:1012F0006F81788589859A850E944700DC01CB0142
:101300009E838D838D819E819A83898389819A8131
:101310000197F1F79A83898383E062E040E00E94BD
:10132000D30660960FB6F894DEBF0FBECDBFCF9147
:10133000DF910895DF93CF93CDB7DEB760970FB6F7
:10134000F894DEBF0FBECDBF888B83E060E040E045
:101350000E94D30683E061E040E00E94D3061F862E
:1013600017C08889282F30E08F85882F90E0A90149
:1013700002C0559547958A95E2F7CA01982F91705A
:1013800082E06F85492F0E94D3068F858F5F8F87FC
:101390008F85883030F383E062E041E00E94D3061D
:1013A00080E090E0A0E0B0E48B879C87AD87BE87AB
:1013B0006B857C858D859E8520E030E04AEF54E486
:1013C0000E941D02DC01CB018F839887A987BA8711
:1013D0006F81788589859A8520E030E040E85FE379
:1013E0000E94770388232CF481E090E09E838D8314
:1013F0003FC06F81788589859A8520E03FEF4FE770
:1014000057E40E94170318164CF56B857C858D8573
:101410009E8520E030E040E251E40E941D02DC01A4
:10142000CB01BC01CD010E944700DC01CB019E83B2
:101430008D830FC088EC90E09C838B838B819C8193
:101440000197F1F79C838B838D819E8101979E8309
:101450008D838D819E81009769F714C06F81788597
:1014600089859A850E944700DC01CB019E838D838C
:101470008D819E819A83898389819A810197F1F771
:101480009A83898383E062E040E00E94D3066096FD
:101490000FB6F894DEBF0FBECDBFCF91DF91089598
:1014A000DF93CF93CDB7DEB72F970FB6F894DEBF9B
:1014B0000FBECDBF1F8608C082E06F8541E00E944D
:1014C000BD058F858F5F8F878F858830A8F383E078
:1014D00060E041E00E94BD0583E061E041E00E94E0
:1014E000BD0583E062E041E00E94BD0580E090E040
:1014F000A0E2B2E48B879C87AD87BE876B857C8535
:101500008D859E8520E030E04AEF54E40E941D0264
:10151000DC01CB018F839887A987BA876F81788593
:1015200089859A8520E030E040E85FE30E947703F8
:1015300088232CF481E090E09E838D833FC06F81EF
:10154000788589859A8520E03FEF4FE757E40E9430
:10155000170318164CF56B857C858D859E8520E0DC
:1015600030E040E251E40E941D02DC01CB01BC01ED
:10157000CD010E944700DC01CB019E838D830FC00B
:1015800088EC90E09C838B838B819C810197F1F7A1
:101590009C838B838D819E8101979E838D838D811A
:1015A0009E81009769F714C06F81788589859A8537
:1015B0000E944700DC01CB019E838D838D819E813B
:1015C0009A83898389819A810197F1F79A83898324
:1015D00088E30E949A098CE00E949A0981E00E94A7
:1015E0009A092F960FB6F894DEBF0FBECDBFCF91EC
:1015F000DF910895DF93CF93CDB7DEB781E00E94EE
:101600009A09CF91DF910895DF93CF9300D00F9285
:10161000CDB7DEB78A836B8319828A81882319F458
:101620008B81898303C08B81805C898389818068F9
:10163000898389810E949A090F900F900F90CF9112
:10164000DF910895DF93CF9300D00F92CDB7DEB72F
:101650009B838A8319820EC08981282F30E08A817A
:101660009B81FC01E20FF31F80810E94E4088981C5
:101670008F5F89838981282F30E08A819B81FC01DB
:10168000E20FF31F8081882339F70F900F900F909E
:10169000CF91DF910895DF93CF93CDB7DEB72C972D
:1016A0000FB6F894DEBF0FBECDBF9C878B878B85AE
:1016B0009C859E012F5F3F4FB9014AE050E00E9498
:1016C000980ECE0101960E94220B2C960FB6F8942C
:1016D000DEBF0FBECDBFCF91DF910895DF93CF93D3
:1016E000CDB7DEB780E060E041E00E94BD0580E05C
:1016F00061E041E00E94BD0580E062E041E00E94BF
:10170000BD0580E063E041E00E94BD0580E060E04F
:1017100041E00E94D30680E061E041E00E94D306F0
:1017200080E062E041E00E94D30680E063E041E0B7
:101730000E94D30680E064E040E00E94BD0580E0A6
:1017400065E040E00E94BD0580E066E040E00E9468
:10175000BD0580E067E040E00E94BD0580E064E0F8
:1017600041E00E94D30680E065E041E00E94D3069C
:1017700080E066E041E00E94D30680E067E041E05F
:101780000E94D306CF91DF910895DF93CF93CDB719
:10179000DEB7A2970FB6F894DEBF0FBECDBF8AEAC0
:1017A0008C831D8281E08E8382E08F8383E0888733
:1017B00084E0898785E08A8786E08B8787E08C874D
:1017C000CE010D969F8F8E8FE1E9F0E0F9A3E8A39B
:1017D000F0E1FAA3E8A1F9A1008088A199A10196FE
:1017E00099A388A3EE8DFF8D00828E8D9F8D01962B
:1017F0009F8F8E8F9AA191509AA3EAA1EE2351F761
:101800001B8262C08B81282F30E0CE010596FC013F
:10181000E20FF31F908180E0692F40E00E94D30621
:101820001A823DC08A81282F30E0CE010996FC0142
:10183000E20FF31F908180E0692F0E94E9078983FE
:101840008981882349F58A81282F30E08B81482FB0
:1018500050E0220F331F220F331FCE010196820F5B
:10186000931F840F951FFC013C9680818C830EC0D2
:101870008A81282F30E0CE010996FC01E20FF31F88
:10188000908180E0692F0E94E907898389818823FC
:1018900079F3FC81FD8F1EC08A818F5F8A838A81E4
:1018A000843008F4BFCF8B81282F30E0CE0105961D
:1018B000FC01E20FF31F908180E0692F41E00E945C
:1018C000D3068B818F5F8B838B81843008F49ACF12
:1018D0008C818D8F8D8DA2960FB6F894DEBF0FBED2
:1018E000CDBFCF91DF910895DF93CF93CDB7DEB712
:1018F000E7970FB6F894DEBF0FBECDBF0E94500A27
:101900000E946E0B18A20E94FA0A0E94C50B8F8FCC
:101910008F8D8A3AE1F088A18031C8F488A1282F00
:1019200030E0CE018196FC01E20FF31F8F8D8083A2
:1019300088A18F5F88A388A1282F30E0CE018196EF
:10194000FC01E20FF31F10828F8D0E94E4088F8D3F
:101950008D3309F01CC12DB73EB72A5030400FB669
:10196000F8943EBF0FBE2DBFEDB7FEB73196CE0146
:1019700081969183808380E690E093838283CE0179
:10198000C19695838483CE01C59697838683CE01C5
:10199000C396918780870E94DD0E4DB75EB7465F84
:1019A0005F4F0FB6F8945EBF0FBE4DBF8DA9282FB5
:1019B00030E03FAB2EAB4EA95FA94B325105B1F0E1
:1019C0008EA99FA98C32910534F42EA93FA92A3201
:1019D0003105F1F0B7C04EA95FA94D32510579F03C
:1019E0008EA99FA98F32910511F1ACC089A99AA93E
:1019F0002BA93CA9820F931F9E8F8D8FA5C089A90B
:101A00009AA92BA93CA9821B930B9E8F8D8F9CC0FA
:101A100089A99AA92BA93CA9AC01429FC001439F67
:101A2000900D529F900D11249E8F8D8F8DC08BA98C
:101A30009CA9009759F089A99AA92BA93CA9B90199
:101A40000E943A0ECB019E8F8D8F7EC00E94FA0AB3
:101A500089E690E00E94220B80E090E0AAEFB4E4D7
:101A6000898F9A8FAB8FBC8F698D7A8D8B8D9C8D72
:101A700020E030E04AEF54E40E941D02DC01CB017B
:101A80008D8B9E8BAF8BB88F6D897E898F89988D5A
:101A900020E030E040E85FE30E94770388232CF4E5
:101AA00081E090E09C8B8B8B3FC06D897E898F8914
:101AB000988D20E03FEF4FE757E40E941703181678
:101AC0004CF5698D7A8D8B8D9C8D20E030E040E265
:101AD00051E40E941D02DC01CB01BC01CD010E943A
:101AE0004700DC01CB019C8B8B8B0FC088EC90E016
:101AF0009A8B898B89899A890197F1F79A8B898BBF
:101B00008B899C8901979C8B8B8B8B899C890097F7
:101B100069F714C06D897E898F89988D0E9447006E
:101B2000DC01CB019C8B8B8B8B899C89988B8F875D
:101B30008F8598890197F1F7988B8F870E94FA0A11
:101B400018A2E3CE1E8E1D8E0E94FA0A00D000D08D
:101B500000D0EDB7FEB73196CE0181969183808398
:101B60008EE790E0938382838D8D9E8D9583848311
:101B70000E94B90E8DB79EB706960FB6F8949EBF19
:101B80000FBE8DBFCE0181960E94220B18A280E06D
:101B900090E0A8ECB2E48B879C87AD87BE876B850D
:101BA0007C858D859E8520E030E04AEF54E40E94DC
:101BB0001D02DC01CB018F839887A987BA876F81CB
:101BC000788589859A8520E030E040E85FE30E94CF
:101BD000770388232CF481E090E09E838D833FC0BF
:101BE0006F81788589859A8520E03FEF4FE757E43C
:101BF0000E94170318164CF56B857C858D859E8594
:101C000020E030E040E251E40E941D02DC01CB0103
:101C1000BC01CD010E944700DC01CB019E838D8376
:101C20000FC088EC90E09C838B838B819C81019713
:101C3000F1F79C838B838D819E8101979E838D8399
:101C40008D819E81009769F760CE6F817885898547
:101C50009A850E944700DC01CB019E838D838D8194
:101C60009E819A83898389819A810197F1F79A836A
:101C700089834BCE97FB092E07260AD077FD04D027
:101C80000CD006D000201AF4709561957F4F08950E
:101C9000F6F7909581959F4F0895AA1BBB1B51E1C4
:101CA00007C0AA1FBB1FA617B70710F0A61BB70BCC
:101CB000881F991F5A95A9F780959095BC01CD0171
:101CC00008952F923F924F925F926F927F928F92E0
:101CD0009F92AF92BF92CF92DF92EF92FF920F93BB
:101CE0001F93CF93DF93CDB7DEB7CA1BDB0B0FB6C5
:101CF000F894DEBF0FBECDBF09942A883988488882
:101D00005F846E847D848C849B84AA84B984C88417
:101D1000DF80EE80FD800C811B81AA81B981CE0F0E
:101D2000D11D0FB6F894DEBF0FBECDBFED010895F3
:101D3000FB019F01E8944230C4F04532B4F44A30CC
:101D400029F497FB1EF4909581959F4F642F772778
:101D50000E944D0E805D8A330CF0895D8193CB012A
:101D60000097A1F716F45DE251931082C9010C941B
:101D70009213AEE0B0E0EFEBFEE00C946F0E0D8935
:101D80001E8986E08C831A8309838FEF9FE79E83E9
:101D90008D839E01275E3F4FCE0101966F89788D1E
:101DA000A9010E94F70E2F813885020F131FF80139
:101DB00010822E96E4E00C948B0EAEE0B0E0E3EEE1
:101DC000FEE00C94710E85E08C838B899C899A834C
:101DD00089839E01295E3F4FCE0101966D897E89E0
:101DE000A9010E9458122E96E2E00C948D0EABE0F1
:101DF000B0E0EDEFFEE00C94610E3C012B015A01C6
:101E0000FC0117821682838181FD03C06FEF7FEF93
:101E1000C6C19AE0892E1E010894211C311CF301D1
:101E20002381F20123FD859123FF81912F018823D6
:101E300009F4B2C1853239F423FD859123FF8191E4
:101E40002F01853229F490E0B3010E94E413E7CF1B
:101E5000982FFF24EE249924FFE1FF15D0F09B3248
:101E600069F09C3228F4903259F0933291F40EC00C
:101E70009D3249F0903369F441E024C052E0F52AE4
:101E800084E0F82A28C098E0F92A25C0E0E1FE2A7B
:101E900022C0F7FC29C0892F80538A3070F4F6FEE7
:101EA00005C0989C902C1124980E15C0E89CE02C3D
:101EB0001124E80EF0E2FF2A0EC09E3229F4F6FC4F
:101EC0006BC140E4F42A07C09C3619F450E8F52AA7
:101ED00002C0983649F4F20123FD959123FF9191B8
:101EE0002F01992309F0B8CF892F8554833018F03A
:101EF0008052833038F444E050E0A40EB51E5FE316
:101F000059830FC0933631F0933779F0933509F048
:101F100056C020C0F5018081898342E050E0A40EC4
:101F2000B51E610101E010E012C0F501C080D18052
:101F3000F6FC03C06FEF7FEF02C0692D70E042E056
:101F400050E0A40EB51EC6010E9487138C015FE706
:101F5000F52214C0F501C080D180F6FC03C06FEFFC
:101F60007FEF02C0692D70E042E050E0A40EB51E84
:101F7000C6010E947C138C0150E8F52AF3FE07C0CD
:101F80001AC080E290E0B3010E94E413EA948E2D1F
:101F900090E008171907A8F30EC0F601F7FC859129
:101FA000F7FE81916F0190E0B3010E94E413E1100C
:101FB000EA94015010400115110579F7EAC09436F2
:101FC00011F0993669F5F7FE08C0F50120813181DD
:101FD0004281538184E090E00AC0F50180819181C3
:101FE0009C01442737FD4095542F82E090E0A80ED5
:101FF000B91E9FE6F92257FF09C0509540953095CC
:1020000021953F4F4F4F5F4FE0E8FE2ACA01B901CB
:10201000A1012AE030E00E942A14D82ED21840C034
:10202000953729F41F2D1F7E2AE030E01DC01F2D9B
:10203000197F9F3661F0903720F4983509F0ACC0D5
:102040000FC0903739F0983709F0A6C004C028E0D7
:1020500030E00AC0106114FD146020E130E004C0DB
:1020600014FD166020E132E017FF08C0F501608121
:1020700071818281938144E050E008C0F501808144
:102080009181BC0180E090E042E050E0A40EB51EDA
:10209000A1010E942A14D82ED2188FE7F82EF1221F
:1020A000F6FE0BC05EEFF522D91438F4F4FE07C03B
:1020B000F2FC05C08FEEF82202C01D2D01C0192DC3
:1020C000F4FE0DC0FE01ED0DF11D8081803319F489
:1020D00099EEF92208C01F5FF2FE05C003C08F2DE4
:1020E000867809F01F5F0F2DF3FC14C0F0FE0FC0BF
:1020F0001E1510F09D2C0BC09D2C9E0C911A1E2DB0
:1021000006C080E290E0B3010E94E4131F5F1E1539
:10211000C0F304C01E1510F4E11A01C0EE2404FF40
:102120000FC080E390E0B3010E94E41302FF1DC0E2
:1021300001FD03C088E790E00EC088E590E00BC089
:10214000802F867891F001FF02C08BE201C080E20F
:10215000F7FC8DE290E0B3010E94E41306C080E337
:1021600090E0B3010E94E4139A94D914C0F3DA9476
:10217000F101ED0DF11D808190E0B3010E94E413A7
:10218000DD20A9F706C080E290E0B3010E94E413CD
:10219000EA94EE20C1F743CEF30166817781CB014B
:1021A0002B96E2E10C947D0EFC0120FD08C023FD7E
:1021B00005C022FF02C07383628351834083089568
:1021C000EF92FF920F931F9344FF02C033E011C0C0
:1021D00046FF02C034E00DC0DB01FC01AA0FBB1FAB
:1021E000EE1FFF1F1094D1F76A0F7B1F8E1F9F1FDA
:1021F00031E0660F771F881F991F3150D1F77B019F
:102200008C01E20EF11C011D111DA8019701B701FF
:10221000CA011F910F91FF90EF9008950F931F93A4
:10222000CF93DF938C01C8010E94A213EC0197FDAC
:1022300008C00E946913892BB1F7CE01B8010E9432
:102240001014CE01DF91CF911F910F910895A0E05E
:10225000B0E0EDE2F1E10C94690EEC01C62E5A01FA
:10226000122F0E94A213AC018B3219F08D3251F45F
:102270001068CA9409F46DC0CE010E94A213AC018B
:1022800097FD67C06DEFD62ED1228D2D807301F59D
:102290004033F1F4CA9409F447C0CE010E94A2135E
:1022A000AC0197FD41C082E0D82A483711F048358B
:1022B00059F480E4D82ACA94B9F1CE010E94A2133D
:1022C000AC0199232CF430C0D6FC02C080E1D82A9E
:1022D000EE24FF248701242F2053283088F0D4FCDB
:1022E00009C02A3068F0D6FE05C02F7D822F8151AB
:1022F000863028F0CA01BE010E94101412C0275077
:10230000C801B7014D2D0E94E0107B018C0182E0D5
:10231000D82ACA9461F0CE010E94A213AC0197FFA3
:10232000DACFD1FC04C015C0EE24FF248701D7FE0C
:1023300008C010950095F094E094E11CF11C011D7B
:10234000111DC501B801A7012D2D0E94D41081E0F7
:1023500001C080E0CDB7DEB7EAE00C94850EA0E2C4
:10236000B0E0E5EBF1E10C94650E6C01A62E8A015C
:102370007901FE01319680E2DF011D928A95E9F72D
:1023800070E030E060E040E050E04F01A1E0B0E0FC
:10239000F6018381F70183FD259183FF21917F0160
:1023A000222309F47EC02E3519F44115510569F137
:1023B000872F90E08417950744F42D3551F12D3285
:1023C00021F4332329F431E021C0332309F4622FAF
:1023D000322F832F869586958695F401E80FF11D9F
:1023E000832F87703D0102C0660C771C8A95E2F747
:1023F000208126292083361711F430E007C03617D4
:1024000010F43F5FE6CF3150E4CF71E04F5F5F4F94
:10241000BFCF332319F08E8180628E83772359F0EA
:10242000FE0131969E012F5D3F4F80818095819303
:10243000E217F307D1F7BB24B3944E010894811C33
:10244000911CC6010E94A213AC0197FD22C0869583
:1024500086958695F401E80FF11D808190E09A0140
:102460002770307002C0959587952A95E2F780FD18
:1024700005C0CA01B6010E9410140BC00115110558
:1024800019F0D8014D938D01AA94BB24AA20C9F656
:1024900002C0BB2031F40115110529F0F8011082AA
:1024A00002C0EE24FF24C701A096EEE00C94810E3A
:1024B000A0E0B0E0EEE5F2E10C94650E5C016B018A
:1024C0003A01FC01178216828824EAC0812F90E02D
:1024D0000E946913892B21F0C5010E940E11E0C0F2
:1024E000153249F4F601F3FC6591F3FE61916F0139
:1024F000653269F415E2C5010E94A21397FDDCC0A4
:10250000181709F4CDC0B5010E941014DAC06A3260
:1025100019F0162F00E006C0F3FC1591F3FE11919F
:102520006F0101E099240FC00260692D70E080E026
:1025300090E040E20E94E010962EF601F3FC159127
:10254000F3FE11916F01212F20532A3068F301FD12
:1025500003C099249A9403C0992009F4B2C0183694
:1025600021F01C3699F4F6010BC0F601F3FC6591DD
:10257000F3FE6191683619F06F01162F07C00860ED
:102580000460F3FC1591F3FE11916F01112309F41E
:1025900098C084E590E0612F70E00E947113892B50
:1025A00009F48FC0802F00FF03C0EE24FF2407C072
:1025B000F301E080F18022E030E0620E731E1E36EF
:1025C00051F4F5014681578160E070E0C701202F8A
:1025D0000E94D41065C0133691F481FD02C0992485
:1025E0009394C5010E94A21397FD66C0E114F10403
:1025F00019F0F70181937F019A9499F74FC01B3529
:1026000059F4C501692DA70196010E94AF116C0113
:10261000009709F043C03DC0C5010E940E1197FD0F
:102620004BC01F3659F1103728F4143629F11936EA
:1026300039F527C0133719F0153711F51DC0C5013D
:102640000E94A213EC0197FD11C00E946913892B0F
:1026500029F0CE01B5010E94101408C0E114F10464
:1026600019F0F701C1937F019A9449F7E114F1043D
:10267000A9F0F701108212C0006203C0006101C01E
:102680000064C501692DA701202F0E94271188230E
:1026900029F4F5018381807379F413C000FF8394DA
:1026A000F501F380F601F3FC1591F3FE11916F0132
:1026B000112309F00BCF05C0882019F42FEF3FEF4D
:1026C00002C0282D30E0C901CDB7DEB7EEE00C9492
:1026D000810E91111DC1803219F089508550D0F7BB
:1026E0000895FC010590061621F00020D9F7C001DD
:1026F00008953197CF010895FC0105906150704015
:102700000110D8F7809590958E0F9F1F0895FC01BA
:102710006150704001900110D8F7809590958E0F10
:102720009F1F0895DC01FC01672F71917723E1F76A
:10273000329704C07C916D9370836291AE17BF078E
:10274000C8F30895CF93DF93EC014B8140FF1AC08B
:1027500046FF0AC04F7B4B838E819F8101969F83EA
:102760008E838A81282F2BC042FF13C0E881F98114
:102770008081282F332727FD30952115310529F435
:1027800040624B832FEF3FEF1BC03196F983E88304
:1027900011C0EA85FB85CE0109959C0197FF0AC00F
:1027A0009B812F5F3F4F11F080E201C080E1892BB8
:1027B0008B83E8CF8E819F8101969F838E8330E04B
:1027C000C901DF91CF9108950F931F93CF93DF93AA
:1027D0008C01EB018B8181FF1BC082FF0DC02E811C
:1027E0003F818C819D812817390764F4E881F98144
:1027F0000193F983E88306C0E885F985802F099560
:10280000892B31F48E819F8101969F838E8302C034
:102810000FEF1FEFC801DF91CF911F910F91089526
:102820009C01FB01838180FF11C086FD0FC09FEFDB
:102830002F3F390759F0228380648F7D83838681FF
:10284000978101979783868330E002C02FEF3FEF97
:10285000C9010895FA01AA27283051F1203181F1E8
:10286000E8946F936E7F6E5F7F4F8F4F9F4FAF4F98
:10287000B1E03ED0B4E03CD0670F781F891F9A1FAB
:10288000A11D680F791F8A1F911DA11D6A0F711D5F
:10289000811D911DA11D20D009F468943F912AE06B
:1028A000269F11243019305D3193DEF6CF01089553
:1028B000462F4770405D4193B3E00FD0C9F7F6CF84
:1028C000462F4F70405D4A3318F0495D31FD40524C
:1028D000419302D0A9F7EACFB4E0A69597958795E2
:1028E00077956795BA95C9F70097610571050895C1
:1028F0009B01AC010A2E069457954795379527956D
:10290000BA95C9F7620F731F841F951FA01D089504
:0A291000992788270895F894FFCF57
:10291A002564202563202564004572726F723A206F
:10292A004469766973696F6E206279203000526556
:10293A0073756C743A2025640000000000000000E2
:10294A00003738392F3435362A3132332D43303D6A
:02295A002B0050
:00000001FF
