:100000000C942A000C9447000C9447000C94470071
:100010000C9447000C9447000C9447000C94470044
:100020000C9447000C9447000C94FA060C94AC0610
:100030000C9447000C9447000C9447000C94470024
:100040000C9447000C9447000C9447000C94470014
:100050000C94470011241FBECFE5D8E0DEBFCDBF12
:1000600010E0A0E6B0E0E2E1F2E202C005900D92FD
:10007000A839B107D9F710E0A8E9B0E001C01D9296
:10008000AE39B107E1F70E94D70F0C9407110C9419
:100090000000EF92FF920F931F937B018C0120E0F1
:1000A00030E040E05FE40E94490388238CF0C801FF
:1000B000B70120E030E040E05FE40E94C1010E940F
:1000C000A9039B01AC01205030404040504806C07D
:1000D000C801B7010E94A9039B01AC01B901CA0183
:1000E0001F910F91FF90EF900895A0E0B0E0EBE733
:1000F000F0E00C948B10DC012B01FA019C91923002
:1001000008F439C1EB018881823008F433C194309E
:1001100069F4843009F02FC111969C91119789815F
:10012000981709F428C1A0E6B0E025C1843009F48D
:1001300021C18230A9F4923009F01DC19A01AD01AC
:1001400088E0EA010990AE01E90109929E0181501F
:10015000C1F7E201898111969C918923818308C1AD
:10016000923009F407C112962D903C901397EB0141
:100170008A819B811496AD90BD90CD90DC901797AD
:10018000EC80FD800E811F819101281B390BB90184
:1001900037FF04C066277727621B730B6032710537
:1001A0000CF061C0121613066CF537014801062EDB
:1001B00004C096948794779467940A94D2F721E0C8
:1001C00030E040E050E004C0220F331F441F551FB1
:1001D0006A95D2F721503040404050402E213F21B7
:1001E00040235123211531054105510521F021E01E
:1001F00030E040E050E079018A01E628F72808293C
:1002000019293CC0232BD1F1260E371E350146019A
:10021000062E04C096948794779467940A94D2F734
:1002200021E030E040E050E004C0220F331F441FC3
:10023000551F6A95D2F721503040404050402A2146
:100240003B214C215D21211531054105510521F04E
:1002500021E030E040E050E059016A01A628B728CB
:10026000C828D9280BC0821593052CF01C01AA249C
:10027000BB24650103C0EE24FF24870111969C91E5
:10028000D20111968C91981709F445C0992339F041
:10029000A80197012A193B094C095D0906C0A6016E
:1002A00095012E193F09400B510B57FD08C01182D3
:1002B0003382228224833583468357831DC081E0A5
:1002C00081833382228288279927DC01821B930B4A
:1002D000A40BB50B84839583A683B7830DC0220F2F
:1002E000331F441F551F24833583468357838281E0
:1002F000938101979383828324813581468157813D
:10030000DA01C9010197A109B1098F5F9F4FAF4F72
:10031000BF4328F30BC0918333822282EA0CFB1C7B
:100320000C1D1D1DE482F5820683178383E0808304
:10033000248135814681578157FF1AC0C901AA27F8
:1003400097FDA095BA2F81709070A070B0705695EF
:10035000479537952795822B932BA42BB52B848318
:100360009583A683B7838281938101969383828349
:10037000DF0101C0D201CD01CDB7DEB7E2E10C94BF
:10038000A710A0E2B0E0E7ECF1E00C9497106983CD
:100390007A838B839C832D833E834F835887E9E048
:1003A000EE2EF12CEC0EFD1ECE010196B7010E943F
:1003B000D2048E010F5E1F4FCE010596B8010E9438
:1003C000D2048A8991E089278A8BC701B801AE01DE
:1003D000475E5F4F0E9475000E94FD03A096E6E015
:1003E0000C94B310A0E2B0E0E8EFF1E00C949710A9
:1003F00069837A838B839C832D833E834F835887C5
:10040000F9E0EF2EF12CEC0EFD1ECE010196B701A6
:100410000E94D2048E010F5E1F4FCE010596B801D7
:100420000E94D204C701B801AE01475E5F4F0E942F
:1004300075000E94FD03A096E6E00C94B310A0E2C4
:10044000B0E0E5E2F2E00C948B1069837A838B8351
:100450009C832D833E834F835887CE010196BE0136
:10046000675F7F4F0E94D204CE010596BE016F5E8A
:100470007F4F0E94D2049985923088F0898982301A
:10048000C8F0943019F4823051F404C0843029F457
:10049000923081F480E690E0C6C0923049F420E0CA
:1004A0009A858A89981321E02A87CE010996BBC0D4
:1004B000823049F420E09A858A89981321E02A8BBA
:1004C000CE014196B0C02D843E844F8458886D88FB
:1004D0007E888F88988CEE24FF248701AA24BB2471
:1004E000650140E050E060E070E0E0E0F0E0C10174
:1004F00081709070892BE9F0E60CF71C081D191D1E
:100500009A01AB012A0D3B1D4C1D5D1D80E090E062
:10051000A0E0B0E0E614F7040805190520F481E036
:1005200090E0A0E0B0E0BA01A901480F591F6A1F8E
:100530007B1FAA0CBB1CCC1CDD1C97FE08C081E0F5
:1005400090E0A0E0B0E0A82AB92ACA2ADB2A3196B6
:10055000E032F10549F0660C771C881C991C569412
:10056000479437942794C3CFFA85EA892B893C892D
:100570008B859C85280F391F2E5F3F4F17C0CA01FE
:1005800081709070892B61F016950795F794E79428
:1005900080E090E0A0E0B0E8E82AF92A0A2B1B2BC3
:1005A00076956795579547952F5F3F4F77FDE7CF36
:1005B0000CC0440F551F661F771F17FD4160EE0CDE
:1005C000FF1C001F111F21503040403090E05907A0
:1005D00090E0690790E4790760F32B8F3C8FDB0193
:1005E000CA018F779070A070B07080349105A1051A
:1005F000B10561F447FD0AC0E114F10401051105DC
:1006000029F0405C5F4F6F4F7F4F40781A8EFE1786
:1006100011F081E08A8F4D8F5E8F6F8F78A383E01A
:10062000898FCE0149960E94FD03A096E2E10C94C9
:10063000A710A8E1B0E0EFE1F3E00C949710698314
:100640007A838B839C832D833E834F83588789E0F5
:10065000E82EF12CEC0EFD1ECE010196B7010E9492
:10066000D2048E010F5E1F4FCE010596B8010E9485
:10067000D2048985823040F08989823028F0C70110
:10068000B8010E944A0501C08FEF6896E6E00C941D
:10069000B310A8E1B0E0EFE4F3E00C9497106983A5
:1006A0007A838B839C832D833E834F83588789E095
:1006B000E82EF12CEC0EFD1ECE010196B7010E9432
:1006C000D2048E010F5E1F4FCE010596B8010E9425
:1006D000D2048985823040F08989823028F0C701B0
:1006E000B8010E944A0501C08FEF6896E6E00C94BD
:1006F000B310A8E1B0E0EFE7F3E00C949710698342
:100700007A838B839C832D833E834F83588789E034
:10071000E82EF12CEC0EFD1ECE010196B7010E94D1
:10072000D2048E010F5E1F4FCE010596B8010E94C4
:10073000D2048985823040F08989823028F0C7014F
:10074000B8010E944A0501C081E06896E6E00C9479
:10075000B310ACE0B0E0EFEAF3E00C949B106983D7
:100760007A838B839C83CE010196BE016B5F7F4FA2
:100770000E94D2048D81823061F1823050F1843048
:1007800021F48E81882351F12EC02F81388537FDC9
:1007900020C06E812F3131051CF06623F9F023C093
:1007A0008EE190E0821B930B29853A854B855C8511
:1007B00004C056954795379527958A95D2F76623B5
:1007C000B1F050954095309521953F4F4F4F5F4F79
:1007D0000EC020E030E040E050E009C02FEF3FEFD6
:1007E0004FEF5FE704C020E030E040E050E8B9019F
:1007F000CA012C96E2E00C94B710DF92EF92FF92C0
:100800000F931F93FC01E480F58006811781D1804E
:100810008081823048F480E090E0A0E1B0E0E82AF6
:10082000F92A0A2B1B2BA5C0843009F49FC0823003
:1008300021F4EE24FF24870105C0E114F104010531
:10084000110519F4E0E0F0E096C0628173819FEF3A
:10085000623879070CF05BC022E83FEF261B370BAC
:100860002A3131052CF020E030E040E050E02AC091
:10087000B801A701022E04C0769567955795479554
:100880000A94D2F781E090E0A0E0B0E004C0880FC5
:10089000991FAA1FBB1F2A95D2F70197A109B10979
:1008A0008E219F21A023B1230097A105B10521F03E
:1008B00081E090E0A0E0B0E09A01AB01282B392B59
:1008C0004A2B5B2BDA01C9018F779070A070B07052
:1008D00080349105A105B10539F427FF09C0205CDA
:1008E0003F4F4F4F5F4F04C0215C3F4F4F4F5F4F13
:1008F000E0E0F0E02030A0E03A07A0E04A07A0E402
:100900005A0710F0E1E0F0E079018A0127C0603871
:10091000710564F5FB01E158FF4FD801C7018F77DE
:100920009070A070B07080349105A105B10539F4C4
:10093000E7FE0DC080E490E0A0E0B0E004C08FE3EB
:1009400090E0A0E0B0E0E80EF91E0A1F1B1F17FFA1
:1009500005C016950795F794E794319687E01695AC
:100960000795F794E7948A95D1F705C0EE24FF2404
:100970008701EFEFF0E06E2F679566276795902F60
:100980009F77D794DD24D7948E2F8695492F462BB9
:10099000582F5D29B701CA011F910F91FF90EF9069
:1009A000DF900895FC01DB01408151812281622F9B
:1009B0006F7770E0221F2227221F9381892F880FD3
:1009C000822B282F30E0991F9927991F11969C930D
:1009D000119721153105A9F54115510561057105DD
:1009E00011F482E037C082E89FEF13969C938E93B8
:1009F00012979A01AB0167E0220F331F441F551F66
:100A00006A95D1F783E08C930DC0220F331F441FEA
:100A1000551F12968D919C911397019713969C9355
:100A20008E931297203080E0380780E0480780E4FA
:100A3000580758F314962D933D934D935C93179755
:100A400008952F3F310579F4411551056105710570
:100A500019F484E08C93089564FF03C081E08C93C3
:100A600012C01C9210C02F57304013963C932E9307
:100A7000129783E08C9387E0440F551F661F771F02
:100A80008A95D1F7706414964D935D936D937C9322
:100A9000179708951F93DC01FB019C91923008F495
:100AA00047C08081823008F443C0943051F41196DD
:100AB0001C91843099F58181682F70E0611B710968
:100AC0003FC0843021F0923031F48230B9F181811D
:100AD000882389F12DC011961C9111978230F1F075
:100AE00081811817D9F412962D913C911397828128
:100AF00093818217930794F028173907BCF0149656
:100B00008D919D910D90BC91A02D248135814681C0
:100B10005781281739074A075B0718F4112341F05A
:100B20000AC082179307A407B50740F4112319F0F0
:100B300061E070E005C06FEF7FEF02C060E070E041
:100B4000CB011F910895DF93CF930F92CDB7DEB7FE
:100B5000198289818068898389818F7B89838981D2
:100B60008F7D898389818F7E89838981877F89832E
:100B7000898184608983898182608983AAE2B0E067
:100B8000EAE2F0E080818B7F8C93E0E4F0E0898101
:100B90008083E9E2F0E083E38083AAE2B0E0EAE266
:100BA000F0E0808180618C93AAE2B0E0EAE2F0E0BC
:100BB000808188608C930F90CF91DF910895DF93AF
:100BC000CF930F92CDB7DEB78983EBE2F0E080815F
:100BD000829586958770882F90E08170907000973D
:100BE000A1F3ABE2B0E0EBE2F0E0808180628C93B5
:100BF000ECE2F0E0898180830F90CF91DF9108953E
:100C0000DF93CF93CDB7DEB7EBE2F0E080818823AE
:100C1000DCF7ECE2F0E08081CF91DF910895DF9383
:100C2000CF9300D00F92CDB7DEB79B838A83198212
:100C30000EC08981282F30E08A819B81FC01E20F60
:100C4000F31F80810E94DF0589818F5F89838981FD
:100C5000282F30E08A819B81FC01E20FF31F808105
:100C6000882339F70F900F900F90CF91DF9108955F
:100C7000DF93CF93CDB7DEB7A3E5B0E0E3E5F0E0D7
:100C80008081877F8C93A3E5B0E0E3E5F0E080818D
:100C90008F7B8C93A3E5B0E0E3E5F0E080818E7F6D
:100CA0008C93A3E5B0E0E3E5F0E0808182608C9373
:100CB000A3E5B0E0E3E5F0E080818B7F8C93E2E593
:100CC000F0E080EC8083A9E5B0E0E9E5F0E0808128
:100CD00081608C93CF91DF910895DF93CF93CDB74F
:100CE000DEB7A3E5B0E0E3E5F0E0808188608C93B7
:100CF000A3E5B0E0E3E5F0E080818F7B8C93A3E592
:100D0000B0E0E3E5F0E080818E7F8C93A3E5B0E076
:100D1000E3E5F0E0808182608C93A3E5B0E0E3E559
:100D2000F0E080818B7F8C93A9E5B0E0E9E5F0E00D
:100D3000808182608C93CF91DF910895DF93CF9370
:100D40000F92CDB7DEB78983ECE5F0E0898180832F
:100D50000F90CF91DF9108951F920F920FB60F92CF
:100D600011242F933F934F935F936F937F938F93B0
:100D70009F93AF93BF93EF93FF93DF93CF93CDB741
:100D8000DEB78091990090919A00019690939A0015
:100D9000809399008091990090919A002FE083347C
:100DA0009207A9F49091980080E060E0492F0E949A
:100DB000BD099091980081E0892780939800E2E531
:100DC000F0E080EC808310929A0010929900CF910D
:100DD000DF91FF91EF91BF91AF919F918F917F91A3
:100DE0006F915F914F913F912F910F900FBE0F9098
:100DF0001F9018951F920F920FB60F9211242F93E8
:100E00003F934F935F936F937F938F939F93AF9392
:100E1000BF93EF93FF93DF93CF93CDB7DEB780916E
:100E20009C0090919D00019690939D0080939C0062
:100E300080919C0090919D002FE0803A920789F468
:100E400090919B0080E060E0492F0E94BD09909145
:100E50009B0081E0892780939B0010929D00109257
:100E60009C00CF91DF91FF91EF91BF91AF919F9146
:100E70008F917F916F915F914F913F912F910F9043
:100E80000FBE0F901F901895DF93CF9300D000D026
:100E900000D0CDB7DEB79E838D838AEF0E949E0679
:100EA0001C821B8223C01A82198216C0E8E5F0E07A
:100EB00080818695882F90E0817090700097B1F3C3
:100EC000A8E5B0E0E8E5F0E0808182608C9389815C
:100ED0009A8101969A83898389819A8184309105C8
:100EE00028F38B819C8101969C838B832B813C8191
:100EF0008D819E8128173907B0F226960FB6F89497
:100F0000DEBF0FBECDBFCF91DF910895DF93CF93AA
:100F1000CDB7DEB7A5E4B0E0E5E4F0E0808188601D
:100F20008C93A5E4B0E0E5E4F0E0808180648C93EC
:100F3000A5E4B0E0E5E4F0E080818E7F8C93A5E449
:100F4000B0E0E5E4F0E0808182608C93A5E4B0E05D
:100F5000E5E4F0E080818B7F8C93A5E4B0E0E5E4EC
:100F6000F0E0808180628C93A5E4B0E0E5E4F0E0FD
:100F700080818F7E8C93CF91DF910895DF93CF9303
:100F80000F92CDB7DEB78983E3E4F0E089818083F7
:100F90000F90CF91DF910895DF93CF93CDB7DEB758
:100FA000AEE4B0E0EEE4F0E080818E7F8C93AEE4BE
:100FB000B0E0EEE4F0E0808182608C93AEE4B0E0DB
:100FC000EEE4F0E080818B7F8C93AFE4B0E0EFE45F
:100FD000F0E0808180688C93AFE4B0E0EFE4F0E073
:100FE00080818F7B8C93AFE4B0E0EFE4F0E0808110
:100FF0008E7F8C93AFE4B0E0EFE4F0E0808182601C
:101000008C93AEE4B0E0EEE4F0E0808188608C93F5
:10101000AEE4B0E0EEE4F0E0808180618C93CF91AB
:10102000DF910895DF93CF9300D0CDB7DEB79A83D9
:101030008983E6E4F0E089819A81918380830F902F
:101040000F90CF91DF910895DF93CF9300D0CDB76C
:10105000DEB79A838983EAE4F0E089819A819183FB
:1010600080830F900F90CF91DF910895DF93CF93FE
:10107000CDB7DEB7ADE2B0E0EDE2F0E080818061B7
:101080008C93ADE2B0E0EDE2F0E0808182608C9381
:10109000ADE2B0E0EDE2F0E080818E7F8C93AEE2D5
:1010A000B0E0EEE2F0E080818E7F8C93ADE2B0E0C4
:1010B000EDE2F0E0808180648C93CF91DF91089520
:1010C000DF93CF93CDB7DEB7ADE2B0E0EDE2F0E075
:1010D00080818F7E8C93ADE2B0E0EDE2F0E0808124
:1010E00080648C93CF91DF910895DF93CF930F921B
:1010F000CDB7DEB78983EFE2F0E089818083EEE24D
:10110000F0E080818823DCF7EFE2F0E080810F904F
:10111000CF91DF910895DF93CF93CDB7DEB7AFE5E1
:10112000B0E0EFE5F0E0808180688C93CF91DF91B3
:101130000895DF93CF93CDB7DEB7AFE5B0E0EFE52D
:10114000F0E080818F778C93CF91DF910895DF93CA
:10115000CF93CDB7DEB72D970FB6F894DEBF0FBE95
:10116000CDBF89836A834B838981282F30E03D87F7
:101170002C878C859D858130910509F44FC02C8585
:101180003D85223031052CF48C859D85009771F0CA
:10119000EBC02C853D852230310509F477C08C8564
:1011A0009D858330910509F4A9C0DEC08B81282F6D
:1011B00030E03B872A878A859B850097D1F02A8576
:1011C0003B852130310509F0CFC0AAE3B0E0EAE366
:1011D000F0E08081482F8A81282F30E081E090E084
:1011E000022E02C0880F991F0A94E2F7842B8C9379
:1011F000BBC0AAE3B0E0EAE3F0E08081482F8A8137
:10120000282F30E081E090E0022E02C0880F991F65
:101210000A94E2F7809584238C93A6C08B81282FB3
:1012200030E039872887888599850097D1F028850F
:1012300039852130310509F097C0A7E3B0E0E7E335
:10124000F0E08081482F8A81282F30E081E090E013
:10125000022E02C0880F991F0A94E2F7842B8C9308
:1012600083C0A7E3B0E0E7E3F0E08081482F8A8104
:10127000282F30E081E090E0022E02C0880F991FF5
:101280000A94E2F7809584238C936EC08B81282F7B
:1012900030E03F832E838E819F810097D1F02E8195
:1012A0003F812130310509F05FC0A4E3B0E0E4E301
:1012B000F0E08081482F8A81282F30E081E090E0A3
:1012C000022E02C0880F991F0A94E2F7842B8C9398
:1012D0004BC0A4E3B0E0E4E3F0E08081482F8A81D2
:1012E000282F30E081E090E0022E02C0880F991F85
:1012F0000A94E2F7809584238C9336C08B81282F43
:1013000030E03D832C838C819D810097C9F02C8136
:101310003D812130310541F5A1E3B0E0E1E3F0E0AA
:101320008081482F8A81282F30E081E090E0022ED2
:1013300002C0880F991F0A94E2F7842B8C9314C083
:10134000A1E3B0E0E1E3F0E08081482F8A81282F1B
:1013500030E081E090E0022E02C0880F991F0A94CD
:10136000E2F7809584238C932D960FB6F894DEBF18
:101370000FBECDBFCF91DF910895DF93CF93CDB74F
:10138000DEB72D970FB6F894DEBF0FBECDBF8983B1
:101390006A834B838981282F30E03D872C878C8599
:1013A0009D858130910509F44FC02C853D85223003
:1013B00031052CF48C859D85009771F0EBC02C8550
:1013C0003D852230310509F477C08C859D858330B9
:1013D000910509F4A9C0DEC08B81282F30E03B873E
:1013E0002A878A859B850097D1F02A853B85213005
:1013F000310509F0CFC0ABE3B0E0EBE3F0E0808172
:10140000482F8A81282F30E081E090E0022E02C030
:10141000880F991F0A94E2F7842B8C93BBC0ABE32F
:10142000B0E0EBE3F0E08081482F8A81282F30E0A4
:1014300081E090E0022E02C0880F991F0A94E2F723
:10144000809584238C93A6C08B81282F30E0398728
:101450002887888599850097D1F02885398521309E
:10146000310509F097C0A8E3B0E0E8E3F0E080813F
:10147000482F8A81282F30E081E090E0022E02C0C0
:10148000880F991F0A94E2F7842B8C9383C0A8E3FA
:10149000B0E0E8E3F0E08081482F8A81282F30E037
:1014A00081E090E0022E02C0880F991F0A94E2F7B3
:1014B000809584238C936EC08B81282F30E03F83EE
:1014C0002E838E819F810097D1F02E813F81213024
:1014D000310509F05FC0A5E3B0E0E5E3F0E080810D
:1014E000482F8A81282F30E081E090E0022E02C050
:1014F000880F991F0A94E2F7842B8C934BC0A5E3C5
:10150000B0E0E5E3F0E08081482F8A81282F30E0C9
:1015100081E090E0022E02C0880F991F0A94E2F742
:10152000809584238C9336C08B81282F30E03D83B7
:101530002C838C819D810097C9F02C813D812130C5
:10154000310541F5A2E3B0E0E2E3F0E08081482F0D
:101550008A81282F30E081E090E0022E02C0880FBF
:10156000991F0A94E2F7842B8C9314C0A2E3B0E095
:10157000E2E3F0E08081482F8A81282F30E081E08B
:1015800090E0022E02C0880F991F0A94E2F780951E
:1015900084238C932D960FB6F894DEBF0FBECDBF7B
:1015A000CF91DF910895DF93CF9300D000D00F92B9
:1015B000CDB7DEB78A836B838A81282F30E03D83E5
:1015C0002C834C815D814130510541F18C819D819D
:1015D0008230910534F42C813D812115310561F073
:1015E00052C04C815D814230510551F18C819D8109
:1015F00083309105B9F147C0E9E3F0E08081282FFD
:1016000030E08B81882F90E0A90102C05595479565
:101610008A95E2F7CA018170898335C0E6E3F0E07C
:101620008081282F30E08B81882F90E0A90102C0B3
:10163000559547958A95E2F7CA018170898323C041
:10164000E3E3F0E08081282F30E08B81882F90E069
:10165000A90102C0559547958A95E2F7CA018170A4
:10166000898311C0E0E3F0E08081282F30E08B8196
:10167000882F90E0A90102C0559547958A95E2F719
:10168000CA018170898389810F900F900F900F900C
:101690000F90CF91DF910895DF93CF9300D000D0CA
:1016A000CDB7DEB789836A838981282F30E03C83F8
:1016B0002B838B819C8181309105D1F02B813C81E2
:1016C000223031052CF48B819C81009761F01EC083
:1016D0002B813C812230310581F08B819C818330CC
:1016E000910581F013C0EAE3F0E08A8180830EC0A7
:1016F000E7E3F0E08A81808309C0E4E3F0E08A81D7
:10170000808304C0E1E3F0E08A8180830F900F9032
:101710000F900F90CF91DF910895DF93CF9300D07A
:1017200000D0CDB7DEB789836A838981282F30E066
:101730003C832B838B819C8181309105D1F02B815F
:101740003C81223031052CF48B819C81009761F023
:101750001EC02B813C812230310581F08B819C8120
:101760008330910581F013C0EBE3F0E08A81808340
:101770000EC0E8E3F0E08A81808309C0E5E3F0E091
:101780008A81808304C0E2E3F0E08A8180830F9045
:101790000F900F900F90CF91DF910895DF93CF932B
:1017A000CDB7DEB7A7E2B0E0E7E2F0E08081806489
:1017B0008C93A7E2B0E0E7E2F0E080818F778C9332
:1017C000A7E2B0E0E7E2F0E0808180628C93A6E2DD
:1017D000B0E0E6E2F0E080818E7F8C93A6E2B0E09C
:1017E000E6E2F0E0808182608C93A6E2B0E0E6E27F
:1017F000F0E0808184608C93A6E2B0E0E6E2F0E065
:10180000808180688C93CF91DF910895DF93CF938F
:101810000F92CDB7DEB78983A7E2B0E0E7E2F0E050
:101820008081807E8C93A7E2B0E0E7E2F0E09081D7
:101830008981892B8C93A6E2B0E0E6E2F0E080811A
:1018400080648C93E6E2F0E0808182958F70882F2F
:1018500090E0817090700097A9F3A6E2B0E0E6E214
:10186000F0E0808180618C93E5E2F0E080810F9070
:10187000CF91DF910895DF93CF93CDB7DEB7609717
:101880000FB6F894DEBF0FBECDBF888B83E060E05B
:1018900041E00E94BD0983E061E040E00E94BD0993
:1018A0001F8617C08889282F30E08F85882F90E009
:1018B000A90102C0559547958A95E2F7CA01982F6C
:1018C000917082E06F85492F0E94BD098F858F5FDF
:1018D0008F878F85883030F383E062E041E00E949B
:1018E000BD0980E090E0A0E0B0E48B879C87AD87E5
:1018F000BE876B857C858D859E8520E030E04AEF34
:1019000054E40E941F02DC01CB018F839887A987D2
:10191000BA876F81788589859A8520E030E040E834
:101920005FE30E94790388232CF481E090E09E839A
:101930008D833FC06F81788589859A8520E03FEF50
:101940004FE757E40E94190318164CF56B857C8508
:101950008D859E8520E030E040E251E40E941F0228
:10196000DC01CB01BC01CD010E944900DC01CB01AF
:101970009E838D830FC088EC90E09C838B838B814A
:101980009C810197F1F79C838B838D819E810197C8
:101990009E838D838D819E81009769F714C06F812E
:1019A000788589859A850E944900DC01CB019E8358
:1019B0008D838D819E819A83898389819A81019704
:1019C000F1F79A83898383E062E040E00E94BD09D9
:1019D00060960FB6F894DEBF0FBECDBFCF91DF91FA
:1019E0000895DF93CF93CDB7DEB760970FB6F89425
:1019F000DEBF0FBECDBF888B83E060E040E00E9479
:101A0000BD0983E061E040E00E94BD091F8617C068
:101A10008889282F30E08F85882F90E0A90102C0A7
:101A2000559547958A95E2F7CA01982F917082E003
:101A30006F85492F0E94BD098F858F5F8F878F85A6
:101A4000883030F383E062E041E00E94BD0980E02D
:101A500090E0A0E0B0E48B879C87AD87BE876B8564
:101A60007C858D859E8520E030E04AEF54E40E941D
:101A70001F02DC01CB018F839887A987BA876F810A
:101A8000788589859A8520E030E040E85FE30E9410
:101A9000790388232CF481E090E09E838D833FC0FE
:101AA0006F81788589859A8520E03FEF4FE757E47D
:101AB0000E94190318164CF56B857C858D859E85D3
:101AC00020E030E040E251E40E941F02DC01CB0143
:101AD000BC01CD010E944900DC01CB019E838D83B6
:101AE0000FC088EC90E09C838B838B819C81019755
:101AF000F1F79C838B838D819E8101979E838D83DB
:101B00008D819E81009769F714C06F8178858985E2
:101B10009A850E944900DC01CB019E838D838D81D3
:101B20009E819A83898389819A810197F1F79A83AB
:101B3000898383E062E040E00E94BD0960960FB6B1
:101B4000F894DEBF0FBECDBFCF91DF910895DF9334
:101B5000CF93CDB7DEB72F970FB6F894DEBF0FBE89
:101B6000CDBF1F8608C082E06F8541E00E94A708B4
:101B70008F858F5F8F878F858830A8F383E060E043
:101B800041E00E94A70883E061E041E00E94A708CD
:101B900083E062E041E00E94A70880E090E0A0E2DC
:101BA000B2E48B879C87AD87BE876B857C858D85EE
:101BB0009E8520E030E04AEF54E40E941F02DC01E1
:101BC000CB018F839887A987BA876F8178858985AC
:101BD0009A8520E030E040E85FE30E9479038823A3
:101BE0002CF481E090E09E838D833FC06F817885E7
:101BF00089859A8520E03FEF4FE757E40E9419035B
:101C000018164CF56B857C858D859E8520E030E02F
:101C100040E251E40E941F02DC01CB01BC01CD0176
:101C20000E944900DC01CB019E838D830FC088ECAC
:101C300090E09C838B838B819C810197F1F79C833F
:101C40008B838D819E8101979E838D838D819E8163
:101C5000009769F714C06F81788589859A850E94FD
:101C60004900DC01CB019E838D838D819E819A8307
:101C7000898389819A810197F1F79A83898388E31F
:101C80000E94F10C8CE00E94F10C81E00E94F10CAA
:101C90002F960FB6F894DEBF0FBECDBFCF91DF9168
:101CA0000895DF93CF93CDB7DEB781E00E94F10CAA
:101CB000CF91DF910895DF93CF9300D00F92CDB7EE
:101CC000DEB78A836B8319828A81882319F48B811A
:101CD000898303C08B81805C898389818068898343
:101CE00089810E94F10C0F900F900F90CF91DF919E
:101CF0000895DF93CF9300D00F92CDB7DEB79B83CB
:101D00008A8319820EC08981282F30E08A819B81C5
:101D1000FC01E20FF31F80810E943B0C89818F5FE1
:101D200089838981282F30E08A819B81FC01E20F21
:101D3000F31F8081882339F70F900F900F90CF9178
:101D4000DF910895DF93CF93CDB7DEB72C970FB611
:101D5000F894DEBF0FBECDBF9C878B878B859C859B
:101D60009E012F5F3F4FB9014AE050E00E94C21030
:101D7000CE0101960E94790E2C960FB6F894DEBF24
:101D80000FBECDBFCF91DF910895DF93CF93CDB735
:101D9000DEB780E060E041E00E94A70880E061E0FB
:101DA00041E00E94A70880E062E041E00E94A708AD
:101DB00080E062E041E00E94BD0980E062E041E035
:101DC0000E94BD0980E062E041E00E94BD0980E020
:101DD00064E040E00E94A70880E065E040E00E94E7
:101DE000A70880E066E040E00E94A70880E064E089
:101DF00041E00E94BD0980E065E041E00E94BD092C
:101E000080E066E041E00E94BD0980E067E041E0DB
:101E10000E94BD09CF91DF910895DF93CF93CDB795
:101E2000DEB7A2970FB6F894DEBF0FBECDBF8AEA29
:101E30008C83CE0105969A8F898FE4E7F0E0FC8FC2
:101E4000EB8FF3E0FD8FEB8DFC8D00808B8D9C8DF7
:101E500001969C8F8B8FE98DFA8D0082898D9A8DEA
:101E600001969A8F898F9D8D91509D8FED8DEE23D8
:101E700051F784E0888785E0898786E08A8787E054
:101E80008B87CE010C969F8F8E8FE8E6F0E0F9A34A
:101E9000E8A3FCE0FAA3E8A1F9A1008088A199A138
:101EA000019699A388A3EE8DFF8D00828E8D9F8D64
:101EB00001969F8F8E8F9AA191509AA3EAA1EE234B
:101EC00051F71B8264C08B81282F30E0CE0105962C
:101ED000FC01E20FF31F908180E0692F40E00E9437
:101EE000BD091A823FC08A81282F30E0CE010896B2
:101EF000FC01E20FF31F908180E0692F0E94D30A5A
:101F000089838981882359F58A81282F30E08B8144
:101F1000482F50E0C901880F991F820F931F9E011F
:101F20002F5F3F4F820F931F840F951FFC013B963D
:101F300080818C830EC08A81282F30E0CE010896E4
:101F4000FC01E20FF31F908180E0692F0E94D30A09
:101F500089838981882379F3FC81F88F1EC08A8167
:101F60008F5F8A838A81843008F4BDCF8B81282FCC
:101F700030E0CE010596FC01E20FF31F908180E076
:101F8000692F41E00E94BD098B818F5F8B838B811C
:101F9000833008F498CF8C81888F888DA2960FB6F5
:101FA000F894DEBF0FBECDBFCF91DF910895DF93D0
:101FB000CF93CDB7DEB72F970FB6F894DEBF0FBE25
:101FC000CDBF82E06FEF0E944C0B81E067E040E004
:101FD0000E94A70881E065E040E00E94A70881E038
:101FE00066E041E00E94A70881E064E040E00E94D2
:101FF000A7080E94600882E06FEF0E944C0B1F86CA
:1020000080E00E9475088F878F85882F90E0880F69
:10201000991FFC01E958FF4F80819181982F82E040
:10202000692F0E948D0B80E090E0A8ECB2E48B87D2
:102030009C87AD87BE876B857C858D859E8520E0DE
:1020400030E04AEF54E40E941F02DC01CB018F8391
:102050009887A987BA876F81788589859A8520E0D6
:1020600030E040E85FE30E94790388232CF481E0AC
:1020700090E09E838D833FC06F81788589859A85A6
:1020800020E03FEF4FE757E40E94190318164CF584
:102090006B857C858D859E8520E030E040E251E4B3
:1020A0000E941F02DC01CB01BC01CD010E9449004E
:1020B000DC01CB019E838D830FC088EC90E09C8374
:1020C0008B838B819C810197F1F79C838B838D811E
:1020D0009E8101979E838D838D819E81009769F7F4
:1020E00014C06F81788589859A850E944900DC013A
:1020F000CB019E838D838D819E819A838983898183
:102100009A810197F1F79A8389838F858F3009F03F
:1021100077CF1F8675CF2F923F924F925F926F922B
:102120007F928F929F92AF92BF92CF92DF92EF9267
:10213000FF920F931F93CF93DF93CDB7DEB7CA1BE8
:10214000DB0B0FB6F894DEBF0FBECDBF09942A8813
:10215000398848885F846E847D848C849B84AA84BB
:10216000B984C884DF80EE80FD800C811B81AA8148
:10217000B981CE0FD11D0FB6F894DEBF0FBECDBF13
:10218000ED010895FB019F01E8944230C4F045320F
:10219000B4F44A3029F497FB1EF4909581959F4F33
:1021A000642F77270E94F310805D8A330CF0895DDD
:1021B0008193CB010097A1F716F45DE25193108251
:1021C000C9010C94E310DC01FC01672F71917723A6
:1021D000E1F7329704C07C916D9370836291AE17E2
:1021E000BF07C8F30895AA1BBB1B51E107C0AA1F74
:1021F000BB1FA617B70710F0A61BB70B881F991FA8
:102200005A95A9F780959095BC01CD010895F89451
:02221000FFCFFE
:102212000000000000000000010203040506070898
:10222200090C000D0001023F0006005B004F006632
:10223200006D007D0007007F006F0077007C003991
:08224200005E0079007100004C
:00000001FF
