:100000000C942A000C9447000C9447000C94470071
:100010000C9447000C9447000C9447000C94470044
:100020000C9447000C9447000C9465060C9417063A
:100030000C9447000C9447000C9447000C94470024
:100040000C9447000C9447000C9447000C94470014
:100050000C94470011241FBECFE5D8E0DEBFCDBF12
:1000600010E0A0E6B0E0E2E1F2E202C005900D92FD
:10007000AE38B107D9F710E0AEE8B0E001C01D928C
:10008000A439B107E1F70E94500F0C9407110C94AA
:100090000000EF92FF920F931F937B018C0120E0F1
:1000A00030E040E05FE40E94490388238CF0C801FF
:1000B000B70120E030E040E05FE40E94C1010E940F
:1000C000A9039B01AC01205030404040504806C07D
:1000D000C801B7010E94A9039B01AC01B901CA0183
:1000E0001F910F91FF90EF900895A0E0B0E0EBE733
:1000F000F0E00C947910DC012B01FA019C91923014
:1001000008F439C1EB018881823008F433C194309E
:1001100069F4843009F02FC111969C91119789815F
:10012000981709F428C1A5E7B0E025C1843009F487
:1001300021C18230A9F4923009F01DC19A01AD01AC
:1001400088E0EA010990AE01E90109929E0181501F
:10015000C1F7E201898111969C918923818308C1AD
:10016000923009F407C112962D903C901397EB0141
:100170008A819B811496AD90BD90CD90DC901797AD
:10018000EC80FD800E811F819101281B390BB90184
:1001900037FF04C066277727621B730B6032710537
:1001A0000CF061C0121613066CF537014801062EDB
:1001B00004C096948794779467940A94D2F721E0C8
:1001C00030E040E050E004C0220F331F441F551FB1
:1001D0006A95D2F721503040404050402E213F21B7
:1001E00040235123211531054105510521F021E01E
:1001F00030E040E050E079018A01E628F72808293C
:1002000019293CC0232BD1F1260E371E350146019A
:10021000062E04C096948794779467940A94D2F734
:1002200021E030E040E050E004C0220F331F441FC3
:10023000551F6A95D2F721503040404050402A2146
:100240003B214C215D21211531054105510521F04E
:1002500021E030E040E050E059016A01A628B728CB
:10026000C828D9280BC0821593052CF01C01AA249C
:10027000BB24650103C0EE24FF24870111969C91E5
:10028000D20111968C91981709F445C0992339F041
:10029000A80197012A193B094C095D0906C0A6016E
:1002A00095012E193F09400B510B57FD08C01182D3
:1002B0003382228224833583468357831DC081E0A5
:1002C00081833382228288279927DC01821B930B4A
:1002D000A40BB50B84839583A683B7830DC0220F2F
:1002E000331F441F551F24833583468357838281E0
:1002F000938101979383828324813581468157813D
:10030000DA01C9010197A109B1098F5F9F4FAF4F72
:10031000BF4328F30BC0918333822282EA0CFB1C7B
:100320000C1D1D1DE482F5820683178383E0808304
:10033000248135814681578157FF1AC0C901AA27F8
:1003400097FDA095BA2F81709070A070B0705695EF
:10035000479537952795822B932BA42BB52B848318
:100360009583A683B7838281938101969383828349
:10037000DF0101C0D201CD01CDB7DEB7E2E10C94BF
:100380009510A0E2B0E0E7ECF1E00C9485106983F1
:100390007A838B839C832D833E834F835887E9E048
:1003A000EE2EF12CEC0EFD1ECE010196B7010E943F
:1003B000D2048E010F5E1F4FCE010596B8010E9438
:1003C000D2048A8991E089278A8BC701B801AE01DE
:1003D000475E5F4F0E9475000E94FD03A096E6E015
:1003E0000C94A110A0E2B0E0E8EFF1E00C948510CD
:1003F00069837A838B839C832D833E834F835887C5
:10040000F9E0EF2EF12CEC0EFD1ECE010196B701A6
:100410000E94D2048E010F5E1F4FCE010596B801D7
:100420000E94D204C701B801AE01475E5F4F0E942F
:1004300075000E94FD03A096E6E00C94A110A0E2D6
:10044000B0E0E5E2F2E00C94791069837A838B8363
:100450009C832D833E834F835887CE010196BE0136
:10046000675F7F4F0E94D204CE010596BE016F5E8A
:100470007F4F0E94D2049985923088F0898982301A
:10048000C8F0943019F4823051F404C0843029F457
:10049000923081F485E790E0C6C0923049F420E0C4
:1004A0009A858A89981321E02A87CE010996BBC0D4
:1004B000823049F420E09A858A89981321E02A8BBA
:1004C000CE014196B0C02D843E844F8458886D88FB
:1004D0007E888F88988CEE24FF248701AA24BB2471
:1004E000650140E050E060E070E0E0E0F0E0C10174
:1004F00081709070892BE9F0E60CF71C081D191D1E
:100500009A01AB012A0D3B1D4C1D5D1D80E090E062
:10051000A0E0B0E0E614F7040805190520F481E036
:1005200090E0A0E0B0E0BA01A901480F591F6A1F8E
:100530007B1FAA0CBB1CCC1CDD1C97FE08C081E0F5
:1005400090E0A0E0B0E0A82AB92ACA2ADB2A3196B6
:10055000E032F10549F0660C771C881C991C569412
:10056000479437942794C3CFFA85EA892B893C892D
:100570008B859C85280F391F2E5F3F4F17C0CA01FE
:1005800081709070892B61F016950795F794E79428
:1005900080E090E0A0E0B0E8E82AF92A0A2B1B2BC3
:1005A00076956795579547952F5F3F4F77FDE7CF36
:1005B0000CC0440F551F661F771F17FD4160EE0CDE
:1005C000FF1C001F111F21503040403090E05907A0
:1005D00090E0690790E4790760F32B8F3C8FDB0193
:1005E000CA018F779070A070B07080349105A1051A
:1005F000B10561F447FD0AC0E114F10401051105DC
:1006000029F0405C5F4F6F4F7F4F40781A8EFE1786
:1006100011F081E08A8F4D8F5E8F6F8F78A383E01A
:10062000898FCE0149960E94FD03A096E2E10C94C9
:100630009510A8E1B0E0EFE1F3E00C948510698338
:100640007A838B839C832D833E834F83588789E0F5
:10065000E82EF12CEC0EFD1ECE010196B7010E9492
:10066000D2048E010F5E1F4FCE010596B8010E9485
:10067000D2048985823040F08989823028F0C70110
:10068000B8010E944A0501C08FEF6896E6E00C941D
:10069000A110A8E1B0E0EFE4F3E00C9485106983C9
:1006A0007A838B839C832D833E834F83588789E095
:1006B000E82EF12CEC0EFD1ECE010196B7010E9432
:1006C000D2048E010F5E1F4FCE010596B8010E9425
:1006D000D2048985823040F08989823028F0C701B0
:1006E000B8010E944A0501C08FEF6896E6E00C94BD
:1006F000A110A8E1B0E0EFE7F3E00C948510698366
:100700007A838B839C832D833E834F83588789E034
:10071000E82EF12CEC0EFD1ECE010196B7010E94D1
:10072000D2048E010F5E1F4FCE010596B8010E94C4
:10073000D2048985823040F08989823028F0C7014F
:10074000B8010E944A0501C081E06896E6E00C9479
:10075000A110ACE0B0E0EFEAF3E00C9489106983FB
:100760007A838B839C83CE010196BE016B5F7F4FA2
:100770000E94D2048D81823061F1823050F1843048
:1007800021F48E81882351F12EC02F81388537FDC9
:1007900020C06E812F3131051CF06623F9F023C093
:1007A0008EE190E0821B930B29853A854B855C8511
:1007B00004C056954795379527958A95D2F76623B5
:1007C000B1F050954095309521953F4F4F4F5F4F79
:1007D0000EC020E030E040E050E009C02FEF3FEFD6
:1007E0004FEF5FE704C020E030E040E050E8B9019F
:1007F000CA012C96E2E00C94A510DF92EF92FF92D2
:100800000F931F93FC01E480F58006811781D1804E
:100810008081823048F480E090E0A0E1B0E0E82AF6
:10082000F92A0A2B1B2BA5C0843009F49FC0823003
:1008300021F4EE24FF24870105C0E114F104010531
:10084000110519F4E0E0F0E096C0628173819FEF3A
:10085000623879070CF05BC022E83FEF261B370BAC
:100860002A3131052CF020E030E040E050E02AC091
:10087000B801A701022E04C0769567955795479554
:100880000A94D2F781E090E0A0E0B0E004C0880FC5
:10089000991FAA1FBB1F2A95D2F70197A109B10979
:1008A0008E219F21A023B1230097A105B10521F03E
:1008B00081E090E0A0E0B0E09A01AB01282B392B59
:1008C0004A2B5B2BDA01C9018F779070A070B07052
:1008D00080349105A105B10539F427FF09C0205CDA
:1008E0003F4F4F4F5F4F04C0215C3F4F4F4F5F4F13
:1008F000E0E0F0E02030A0E03A07A0E04A07A0E402
:100900005A0710F0E1E0F0E079018A0127C0603871
:10091000710564F5FB01E158FF4FD801C7018F77DE
:100920009070A070B07080349105A105B10539F4C4
:10093000E7FE0DC080E490E0A0E0B0E004C08FE3EB
:1009400090E0A0E0B0E0E80EF91E0A1F1B1F17FFA1
:1009500005C016950795F794E794319687E01695AC
:100960000795F794E7948A95D1F705C0EE24FF2404
:100970008701EFEFF0E06E2F679566276795902F60
:100980009F77D794DD24D7948E2F8695492F462BB9
:10099000582F5D29B701CA011F910F91FF90EF9069
:1009A000DF900895FC01DB01408151812281622F9B
:1009B0006F7770E0221F2227221F9381892F880FD3
:1009C000822B282F30E0991F9927991F11969C930D
:1009D000119721153105A9F54115510561057105DD
:1009E00011F482E037C082E89FEF13969C938E93B8
:1009F00012979A01AB0167E0220F331F441F551F66
:100A00006A95D1F783E08C930DC0220F331F441FEA
:100A1000551F12968D919C911397019713969C9355
:100A20008E931297203080E0380780E0480780E4FA
:100A3000580758F314962D933D934D935C93179755
:100A400008952F3F310579F4411551056105710570
:100A500019F484E08C93089564FF03C081E08C93C3
:100A600012C01C9210C02F57304013963C932E9307
:100A7000129783E08C9387E0440F551F661F771F02
:100A80008A95D1F7706414964D935D936D937C9322
:100A9000179708951F93DC01FB019C91923008F495
:100AA00047C08081823008F443C0943051F41196DD
:100AB0001C91843099F58181682F70E0611B710968
:100AC0003FC0843021F0923031F48230B9F181811D
:100AD000882389F12DC011961C9111978230F1F075
:100AE00081811817D9F412962D913C911397828128
:100AF00093818217930794F028173907BCF0149656
:100B00008D919D910D90BC91A02D248135814681C0
:100B10005781281739074A075B0718F4112341F05A
:100B20000AC082179307A407B50740F4112319F0F0
:100B300061E070E005C06FEF7FEF02C060E070E041
:100B4000CB011F910895DF93CF93CDB7DEB7A3E517
:100B5000B0E0E3E5F0E08081877F8C93A3E5B0E02F
:100B6000E3E5F0E080818F7B8C93A3E5B0E0E3E5E3
:100B7000F0E080818E7F8C93A3E5B0E0E3E5F0E0C8
:100B8000808182608C93A3E5B0E0E3E5F0E08081B2
:100B90008B7F8C93E2E5F0E080EC8083A9E5B0E008
:100BA000E9E5F0E0808181608C93CF91DF91089539
:100BB000DF93CF93CDB7DEB7A3E5B0E0E3E5F0E098
:100BC000808188608C93A3E5B0E0E3E5F0E080816C
:100BD0008F7B8C93A3E5B0E0E3E5F0E080818E7F2E
:100BE0008C93A3E5B0E0E3E5F0E0808182608C9334
:100BF000A3E5B0E0E3E5F0E080818B7F8C93A9E58D
:100C0000B0E0E9E5F0E0808182608C93CF91DF91E4
:100C10000895DF93CF930F92CDB7DEB78983ECE5CC
:100C2000F0E0898180830F90CF91DF9108951F922A
:100C30000F920FB60F9211242F933F934F935F9310
:100C40006F937F938F939F93AF93BF93EF93FF9394
:100C5000DF93CF93CDB7DEB780918F009091900056
:100C600001969093900080938F0080918F009091D7
:100C700090002FE083349207A9F490918E0080E0D9
:100C800060E0492F0E94420990918E0081E08927FF
:100C900080938E00E2E5F0E080EC8083109290007B
:100CA00010928F00CF91DF91FF91EF91BF91AF91A3
:100CB0009F918F917F916F915F914F913F912F9174
:100CC0000F900FBE0F901F9018951F920F920FB6A6
:100CD0000F9211242F933F934F935F936F937F93C2
:100CE0008F939F93AF93BF93EF93FF93DF93CF9334
:100CF000CDB7DEB7809192009091930001969093CA
:100D000093008093920080919200909193002FE045
:100D1000803A920789F49091910080E060E0492F39
:100D20000E9442099091910081E08927809391006F
:100D30001092930010929200CF91DF91FF91EF916A
:100D4000BF91AF919F918F917F916F915F914F91E3
:100D50003F912F910F900FBE0F901F901895DF932A
:100D6000CF9300D000D000D0CDB7DEB79E838D8367
:100D70008AEF0E9409061C821B8223C01A821982F4
:100D800016C0E8E5F0E080818695882F90E08170BC
:100D900090700097B1F3A8E5B0E0E8E5F0E080815D
:100DA00082608C9389819A8101969A838983898153
:100DB0009A818430910528F38B819C8101969C83D4
:100DC0008B832B813C818D819E8128173907B0F25E
:100DD00026960FB6F894DEBF0FBECDBFCF91DF9140
:100DE0000895DF93CF93CDB7DEB7A5E4B0E0E5E497
:100DF000F0E0808188608C93A5E4B0E0E5E4F0E069
:100E0000808180648C93A5E4B0E0E5E4F0E080812B
:100E10008E7F8C93A5E4B0E0E5E4F0E08081826011
:100E20008C93A5E4B0E0E5E4F0E080818B7F8C93C7
:100E3000A5E4B0E0E5E4F0E0808180628C93A5E475
:100E4000B0E0E5E4F0E080818F7E8C93CF91DF917C
:100E50000895DF93CF930F92CDB7DEB78983E3E494
:100E6000F0E0898180830F90CF91DF910895DF9327
:100E7000CF93CDB7DEB7AEE4B0E0EEE4F0E0808132
:100E80008E7F8C93AEE4B0E0EEE4F0E0808182608F
:100E90008C93AEE4B0E0EEE4F0E080818B7F8C9345
:100EA000AFE4B0E0EFE4F0E0808180688C93AFE4E1
:100EB000B0E0EFE4F0E080818F7B8C93AFE4B0E0B2
:100EC000EFE4F0E080818E7F8C93AFE4B0E0EFE45C
:100ED000F0E0808182608C93AEE4B0E0EEE4F0E07C
:100EE000808188608C93AEE4B0E0EEE4F0E0808135
:100EF00080618C93CF91DF910895DF93CF9300D0E1
:100F0000CDB7DEB79A838983E6E4F0E089819A81E0
:100F1000918380830F900F90CF91DF910895DF939D
:100F2000CF9300D0CDB7DEB79A838983EAE4F0E0AF
:100F300089819A81918380830F900F90CF91DF9167
:100F40000895DF93CF93CDB7DEB7AFE4B0E0EFE421
:100F5000F0E080818E7F8C93AFE4B0E0EFE4F0E0CE
:100F6000808182608C93AEE4B0E0EEE4F0E08081BA
:100F700088608C93AEE4B0E0EEE4F0E080818061C4
:100F80008C93AFE4B0E0EFE4F0E080818F7B8C9352
:100F9000AFE4B0E0EFE4F0E0808180688C93E6E4B9
:100FA000F0E08FE19EE491838083AEE4B0E0EEE474
:100FB000F0E080818E7F8C93AEE4B0E0EEE4F0E070
:100FC000808182608C93AEE4B0E0EEE4F0E080815A
:100FD0008B7F8C93CF91DF910895DF93CF930F9206
:100FE000CDB7DEB78983EAE4F0E08981282F30E0CD
:100FF00082E390E0AC01249FC001259F900D349FB7
:10100000900D1124815E9C4D29E030E0B9010E94D1
:101010005210CB01918380830F90CF91DF9108957F
:10102000DF93CF93CDB7DEB7AFE5B0E0EFE5F0E00B
:10103000808180688C93CF91DF910895DF93CF9367
:10104000CDB7DEB7AFE5B0E0EFE5F0E080818F77B8
:101050008C93CF91DF910895DF93CF93CDB7DEB717
:101060002D970FB6F894DEBF0FBECDBF89836A837C
:101070004B838981282F30E03D872C878C859D8587
:101080008130910509F44FC02C853D852230310512
:101090002CF48C859D85009771F0EBC02C853D85E7
:1010A0002230310509F477C08C859D858330910508
:1010B00009F4A9C0DEC08B81282F30E03B872A8746
:1010C0008A859B850097D1F02A853B8521303105A3
:1010D00009F0CFC0AAE3B0E0EAE3F0E08081482F56
:1010E0008A81282F30E081E090E0022E02C0880F34
:1010F000991F0A94E2F7842B8C93BBC0AAE3B0E05B
:10110000EAE3F0E08081482F8A81282F30E081E0F7
:1011100090E0022E02C0880F991F0A94E2F7809592
:1011200084238C93A6C08B81282F30E039872887B1
:10113000888599850097D1F028853985213031053A
:1011400009F097C0A7E3B0E0E7E3F0E08081482F23
:101150008A81282F30E081E090E0022E02C0880FC3
:10116000991F0A94E2F7842B8C9383C0A7E3B0E025
:10117000E7E3F0E08081482F8A81282F30E081E08A
:1011800090E0022E02C0880F991F0A94E2F7809522
:1011900084238C936EC08B81282F30E03F832E8375
:1011A0008E819F810097D1F02E813F8121303105C2
:1011B00009F05FC0A4E3B0E0E4E3F0E08081482FF1
:1011C0008A81282F30E081E090E0022E02C0880F53
:1011D000991F0A94E2F7842B8C934BC0A4E3B0E0F0
:1011E000E4E3F0E08081482F8A81282F30E081E01D
:1011F00090E0022E02C0880F991F0A94E2F78095B2
:1012000084238C9336C08B81282F30E03D832C8340
:101210008C819D810097C9F02C813D812130310561
:1012200041F5A1E3B0E0E1E3F0E08081482F8A815D
:10123000282F30E081E090E0022E02C0880F991F35
:101240000A94E2F7842B8C9314C0A1E3B0E0E1E3AD
:10125000F0E08081482F8A81282F30E081E090E003
:10126000022E02C0880F991F0A94E2F7809584230A
:101270008C932D960FB6F894DEBF0FBECDBFCF91E5
:10128000DF910895DF93CF93CDB7DEB72D970FB6DB
:10129000F894DEBF0FBECDBF89836A834B838981FB
:1012A000282F30E03D872C878C859D8581309105E6
:1012B00009F44FC02C853D85223031052CF48C85F6
:1012C0009D85009771F0EBC02C853D85223031055E
:1012D00009F477C08C859D858330910509F4A9C0F8
:1012E000DEC08B81282F30E03B872A878A859B854B
:1012F0000097D1F02A853B852130310509F0CFC018
:10130000ABE3B0E0EBE3F0E08081482F8A81282F47
:1013100030E081E090E0022E02C0880F991F0A940D
:10132000E2F7842B8C93BBC0ABE3B0E0EBE3F0E0DF
:101330008081482F8A81282F30E081E090E0022EC2
:1013400002C0880F991F0A94E2F7809584238C933A
:10135000A6C08B81282F30E039872887888599851A
:101360000097D1F0288539852130310509F097C0E3
:10137000A8E3B0E0E8E3F0E08081482F8A81282FDD
:1013800030E081E090E0022E02C0880F991F0A949D
:10139000E2F7842B8C9383C0A8E3B0E0E8E3F0E0AD
:1013A0008081482F8A81282F30E081E090E0022E52
:1013B00002C0880F991F0A94E2F7809584238C93CA
:1013C0006EC08B81282F30E03F832E838E819F81DA
:1013D0000097D1F02E813F812130310509F05FC0A7
:1013E000A5E3B0E0E5E3F0E08081482F8A81282F73
:1013F00030E081E090E0022E02C0880F991F0A942D
:10140000E2F7842B8C934BC0A5E3B0E0E5E3F0E07A
:101410008081482F8A81282F30E081E090E0022EE1
:1014200002C0880F991F0A94E2F7809584238C9359
:1014300036C08B81282F30E03D832C838C819D81A9
:101440000097C9F02C813D812130310541F5A2E39F
:10145000B0E0E2E3F0E08081482F8A81282F30E07D
:1014600081E090E0022E02C0880F991F0A94E2F7F3
:10147000842B8C9314C0A2E3B0E0E2E3F0E080811F
:10148000482F8A81282F30E081E090E0022E02C0B0
:10149000880F991F0A94E2F7809584238C932D96E8
:1014A0000FB6F894DEBF0FBECDBFCF91DF91089588
:1014B000DF93CF9300D000D00F92CDB7DEB78A83F1
:1014C0006B838A81282F30E03D832C834C815D81A2
:1014D0004130510541F18C819D818230910534F478
:1014E0002C813D812115310561F052C04C815D8117
:1014F0004230510551F18C819D8183309105B9F1C4
:1015000047C0E9E3F0E08081282F30E08B81882F0D
:1015100090E0A90102C0559547958A95E2F7CA0166
:101520008170898335C0E6E3F0E08081282F30E0C8
:101530008B81882F90E0A90102C0559547958A9527
:10154000E2F7CA018170898323C0E3E3F0E0808180
:10155000282F30E08B81882F90E0A90102C055959B
:1015600047958A95E2F7CA018170898311C0E0E34B
:10157000F0E08081282F30E08B81882F90E0A90156
:1015800002C0559547958A95E2F7CA018170898313
:1015900089810F900F900F900F900F90CF91DF9156
:1015A0000895DF93CF9300D000D0CDB7DEB7898305
:1015B0006A838981282F30E03C832B838B819C8137
:1015C00081309105D1F02B813C81223031052CF402
:1015D0008B819C81009761F01EC02B813C81223061
:1015E000310581F08B819C818330910581F013C09E
:1015F000EAE3F0E08A8180830EC0E7E3F0E08A81CD
:10160000808309C0E4E3F0E08A81808304C0E1E3E1
:10161000F0E08A8180830F900F900F900F90CF9110
:10162000DF910895DF93CF9300D000D0CDB7DEB720
:1016300089836A838981282F30E03C832B838B81C7
:101640009C8181309105D1F02B813C812230310584
:101650002CF48B819C81009761F01EC02B813C8112
:101660002230310581F08B819C818330910581F09E
:1016700013C0EBE3F0E08A8180830EC0E8E3F0E082
:101680008A81808309C0E5E3F0E08A81808304C019
:10169000E2E3F0E08A8180830F900F900F900F902B
:1016A000CF91DF910895DF93CF93CDB7DEB7A7E257
:1016B000B0E0E7E2F0E0808180648C93A7E2B0E0E4
:1016C000E7E2F0E080818F778C93A7E2B0E0E7E279
:1016D000F0E0808180628C93A6E2B0E0E6E2F0E088
:1016E00080818E7F8C93A6E2B0E0E6E2F0E080811C
:1016F00082608C93A6E2B0E0E6E2F0E08081846054
:101700008C93A6E2B0E0E6E2F0E0808180688C9302
:10171000CF91DF910895DF93CF930F92CDB7DEB7CE
:101720008983A7E2B0E0E7E2F0E08081807E8C93DD
:10173000A7E2B0E0E7E2F0E090818981892B8C9309
:10174000A6E2B0E0E6E2F0E0808180648C93E6E21D
:10175000F0E0808182958F70882F90E0817090708A
:101760000097A9F3A6E2B0E0E6E2F0E080818061B4
:101770008C93E5E2F0E080810F90CF91DF910895A6
:10178000DF93CF93CDB7DEB760970FB6F894DEBF87
:101790000FBECDBF888B83E060E041E00E9442092C
:1017A00083E061E040E00E9442091F8617C08889FB
:1017B000282F30E08F85882F90E0A90102C0559531
:1017C00047958A95E2F7CA01982F917082E06F855C
:1017D000492F0E9442098F858F5F8F878F858830C0
:1017E00030F383E062E041E00E94420980E090E053
:1017F000A0E0B0E48B879C87AD87BE876B857C8536
:101800008D859E8520E030E04AEF54E40E941F025F
:10181000DC01CB018F839887A987BA876F81788590
:1018200089859A8520E030E040E85FE30E947903F3
:1018300088232CF481E090E09E838D833FC06F81EC
:10184000788589859A8520E03FEF4FE757E40E942D
:10185000190318164CF56B857C858D859E8520E0D7
:1018600030E040E251E40E941F02DC01CB01BC01E8
:10187000CD010E944900DC01CB019E838D830FC006
:1018800088EC90E09C838B838B819C810197F1F79E
:101890009C838B838D819E8101979E838D838D8117
:1018A0009E81009769F714C06F81788589859A8534
:1018B0000E944900DC01CB019E838D838D819E8136
:1018C0009A83898389819A810197F1F79A83898321
:1018D00083E062E040E00E94420960960FB6F8940F
:1018E000DEBF0FBECDBFCF91DF910895DF93CF93C1
:1018F000CDB7DEB760970FB6F894DEBF0FBECDBF91
:10190000888B83E060E040E00E94420983E061E070
:1019100040E00E9442091F8617C08889282F30E0C6
:101920008F85882F90E0A90102C0559547958A952B
:10193000E2F7CA01982F917082E06F85492F0E94CB
:1019400042098F858F5F8F878F85883030F383E0E2
:1019500062E041E00E94420980E090E0A0E0B0E453
:101960008B879C87AD87BE876B857C858D859E85A3
:1019700020E030E04AEF54E40E941F02DC01CB017A
:101980008F839887A987BA876F81788589859A859B
:1019900020E030E040E85FE30E94790388232CF4E4
:1019A00081E090E09E838D833FC06F81788589853B
:1019B0009A8520E03FEF4FE757E40E94190318167D
:1019C0004CF56B857C858D859E8520E030E040E27E
:1019D00051E40E941F02DC01CB01BC01CD010E9439
:1019E0004900DC01CB019E838D830FC088EC90E021
:1019F0009C838B838B819C810197F1F79C838B83E4
:101A00008D819E8101979E838D838D819E8100971C
:101A100069F714C06F81788589859A850E9449008D
:101A2000DC01CB019E838D838D819E819A83898386
:101A300089819A810197F1F79A83898383E062E033
:101A400040E00E94420960960FB6F894DEBF0FBED8
:101A5000CDBFCF91DF910895DF93CF93CDB7DEB7A0
:101A60002F970FB6F894DEBF0FBECDBF1F8608C0FC
:101A700082E06F8541E00E942C088F858F5F8F8701
:101A80008F858830A8F383E060E041E00E942C0855
:101A900083E061E041E00E942C0883E062E041E0E5
:101AA0000E942C0880E090E0A0E2B2E48B879C8743
:101AB000AD87BE876B857C858D859E8520E030E077
:101AC0004AEF54E40E941F02DC01CB018F83988708
:101AD000A987BA876F81788589859A8520E030E06B
:101AE00040E85FE30E94790388232CF481E090E0D2
:101AF0009E838D833FC06F81788589859A8520E09C
:101B00003FEF4FE757E40E94190318164CF56B8519
:101B10007C858D859E8520E030E040E251E40E9486
:101B20001F02DC01CB01BC01CD010E944900DC0198
:101B3000CB019E838D830FC088EC90E09C838B83C8
:101B40008B819C810197F1F79C838B838D819E8192
:101B500001979E838D838D819E81009769F714C0C4
:101B60006F81788589859A850E944900DC01CB01C7
:101B70009E838D838D819E819A83898389819A81B9
:101B80000197F1F79A83898388E30E94760C8CE0B1
:101B90000E94760C81E00E94760C2F960FB6F89486
:101BA000DEBF0FBECDBFCF91DF910895DF93CF93FE
:101BB000CDB7DEB781E00E94760CCF91DF9108951A
:101BC000DF93CF9300D00F92CDB7DEB78A836B83BC
:101BD00019828A81882319F48B81898303C08B81C0
:101BE000805C898389818068898389810E94760CE1
:101BF0000F900F900F90CF91DF910895DF93CF93C7
:101C000000D00F92CDB7DEB79B838A8319820EC0B6
:101C10008981282F30E08A819B81FC01E20FF31F2C
:101C200080810E94C00B89818F5F89838981282FE1
:101C300030E08A819B81FC01E20FF31F80818823C1
:101C400039F70F900F900F90CF91DF910895DF93A8
:101C5000CF93CDB7DEB72C970FB6F894DEBF0FBE8B
:101C6000CDBF9C878B878B859C859E012F5F3F4FC7
:101C7000B9014AE050E00E94CE10CE0101960E94C8
:101C8000FE0D2C960FB6F894DEBF0FBECDBFCF91E0
:101C9000DF910895DF93CF93CDB7DEB780E060E0AA
:101CA00041E00E942C0880E061E041E00E942C08A5
:101CB00080E062E041E00E942C0880E063E041E0C7
:101CC0000E942C0880E060E041E00E94420980E030
:101CD00061E041E00E94420980E062E041E00E9450
:101CE000420980E063E041E00E94420980E064E054
:101CF00040E00E942C0880E065E040E00E942C0853
:101D000080E066E040E00E942C0880E067E040E070
:101D10000E942C0880E064E041E00E94420980E0DB
:101D200065E041E00E94420980E066E041E00E94F7
:101D3000420980E067E041E00E944209CF91DF91D3
:101D40000895DF93CF93CDB7DEB7A2970FB6F8947F
:101D5000DEBF0FBECDBF8AEA8C831D8281E08E83F9
:101D600082E08F8383E0888784E0898785E08A87A3
:101D700086E08B8787E08C87CE010D969F8F8E8FB4
:101D8000EDE7F0E0F9A3E8A3F0E1FAA3E8A1F9A1F7
:101D9000008088A199A1019699A388A3EE8DFF8D5B
:101DA00000828E8D9F8D01969F8F8E8F9AA191506C
:101DB0009AA3EAA1EE2351F71B8262C08B81282FE0
:101DC00030E0CE010596FC01E20FF31F908180E028
:101DD000692F40E00E9442091A823DC08A81282F63
:101DE00030E0CE010996FC01E20FF31F908180E004
:101DF000692F0E94580A89838981882349F58A813D
:101E0000282F30E08B81482F50E0220F331F220F04
:101E1000331FCE010196820F931F840F951FFC0183
:101E20003C9680818C830EC08A81282F30E0CE01C1
:101E30000996FC01E20FF31F908180E0692F0E9458
:101E4000580A89838981882379F3FC81FD8F1EC01C
:101E50008A818F5F8A838A81843008F4BFCF8B8127
:101E6000282F30E0CE010596FC01E20FF31F908190
:101E700080E0692F41E00E9442098B818F5F8B8354
:101E80008B81843008F49ACF8C818D8F8D8DA296B2
:101E90000FB6F894DEBF0FBECDBFCF91DF9108958E
:101EA000DF93CF93CDB7DEB76B970FB6F894DEBF55
:101EB0000FBECDBF0E944A0E0E942C0D83E065E04C
:101EC00041E00E942C080E94D60D80E690E00E941E
:101ED000FE0D1F8A1E8A0E94A10E898B89898A3A6B
:101EE000D1F389898D3339F52E893F89CE01489602
:101EF000FC01E20FF31F1082CE0148960E94B01041
:101F0000988B8F878F859889853B910520F084EB8E
:101F100090E0988B8F87CE0148960E94B0109D8BE1
:101F20008C8B8C899D899B8B8A8B8C899D89853B29
:101F30009105F8F423C02E893F894989CE0148963E
:101F4000FC01E20FF31F40838E899F8901969F8BCE
:101F50008E8B8E899F898330910520F083E090E0FD
:101F60009F8B8E8B0E94D60DCE0148960E94FE0D4F
:101F7000B2CF84EB90E09D8B8C8B12C08C899D89B5
:101F80008B35910538F08C899D898A5590409D8BC1
:101F90008C8B06C08C899D89865A9F4F9D8B8C8B1C
:101FA0000E94A1078C890E94ED070E94D60D8DE644
:101FB00090E00E94FE0D8A899B890E94270E80E096
:101FC00090E8ABEBB4E48B879C87AD87BE876B85CD
:101FD0007C858D859E8520E030E04AEF54E40E94A8
:101FE0001F02DC01CB018F839887A987BA876F8195
:101FF000788589859A8520E030E040E85FE30E949B
:10200000790388232CF481E090E09E838D833FC088
:102010006F81788589859A8520E03FEF4FE757E407
:102020000E94190318164CF56B857C858D859E855D
:1020300020E030E040E251E40E941F02DC01CB01CD
:10204000BC01CD010E944900DC01CB019E838D8340
:102050000FC088EC90E09C838B838B819C810197DF
:10206000F1F79C838B838D819E8101979E838D8365
:102070008D819E81009769F726CF6F81788589854C
:102080009A850E944900DC01CB019E838D838D815E
:102090009E819A83898389819A810197F1F79A8336
:1020A000898311CF97FB092E07260AD077FD04D02C
:1020B0000CD006D000201AF4709561957F4F0895DA
:1020C000F6F7909581959F4F0895AA1BBB1B51E190
:1020D00007C0AA1FBB1FA617B70710F0A61BB70B98
:1020E000881F991F5A95A9F780959095BC01CD013D
:1020F00008952F923F924F925F926F927F928F92AC
:102100009F92AF92BF92CF92DF92EF92FF920F9386
:102110001F93CF93DF93CDB7DEB7CA1BDB0B0FB690
:10212000F894DEBF0FBECDBF09942A88398848884D
:102130005F846E847D848C849B84AA84B984C884E3
:10214000DF80EE80FD800C811B81AA81B981CE0FDA
:10215000D11D0FB6F894DEBF0FBECDBFED010895BF
:10216000FC0188279927E89421912032E9F329304E
:1021700010F02E30C8F32B3241F02D3239F4689430
:1021800004C00E94EF10820F911D219120532A302C
:10219000C0F31EF4909581959F4F0895FB019F0118
:1021A000E8944230C4F04532B4F44A3029F497FB45
:1021B0001EF4909581959F4F642F77270E9465109C
:1021C000805D8A330CF0895D8193CB010097A1F784
:1021D00016F45DE251931082C9010C94F7107AE075
:1021E000979F902D879F802D910D11240895DC01DC
:1021F000FC01672F71917723E1F7329704C07C913E
:102200006D9370836291AE17BF07C8F30895F89479
:02221000FFCFFE
:10221200456E74657220416E676C653A00416E6767
:102222006C653A20000000000000000000373839D9
:0E2232002F3435362A3132332D43303D2B0008
:00000001FF
